:020000040800F2
:10400000787C012085420008E3A000085F9C00083E
:10401000D9A000085557000839D500080000000055
:10402000000000000000000000000000C541000882
:1040300029610008000000002142000859C600085C
:104040009F420008F1A200089F4200089F4200081A
:104050009F4200089F4200089F4200089F420008BC
:104060009F4200089F4200089F4200089F420008AC
:104070009F4200089F4200089F4200089F4200089C
:104080009F4200089F4200089F4200089F4200088C
:10409000595700089F4200089F4200089F420008AD
:1040A0009F42000839CF00089F4200089F42000845
:1040B00045CF00089F4200089F4200089F42000829
:1040C0009F4200089F4200089F4200089F4200084C
:1040D0009F4200087DD400089F4200089F420008CC
:1040E0008D6900089F4200089F4200089F42000817
:1040F0009F4200089F4200089F4200089F4200081C
:104100009F4200089F4200089F4200089F4200080B
:104110009F4200089F4200089F4200089F420008FB
:104120009F420008555F0008615F00089F42000839
:104130009F4200089F4200089F4200089F420008DB
:10414000655700089F4200089F4200089F420008F0
:104150009F4200089F4200089F42000891D4000837
:104160009F4200089F4200089F4200089F420008AB
:104170009F4200089F4200089F4200080000000084
:104180009F4200089F4200089F420008C1D00008DB
:104190009F4200089F4200089F4200089F4200087B
:1041A00000000000000000009F420008DFF810D06F
:1041B00000F096FF00480047391F0108AFF3008068
:1041C000787C01202C4B19680868B0E8F04F80F328
:1041D0000988BFF36F8F4FF0000080F3118870479C
:1041E0000000000008480068006880F308884FF06D
:1041F000000080F3148862B661B6BFF34F8FBFF33F
:104200006F8F00DF00BF00BF08ED00E0DFF80C009B
:10421000016841F470010160704700BF88ED00E063
:10422000EFF30980BFF36F8F134B1A681EF0100F66
:1042300008BF20ED108A20E9F04F106009B44FF05C
:10424000500080F31188BFF34F8FBFF36F8F0FF0D3
:1042500013FD4FF0000080F3118809BC196808684D
:10426000B0E8F04F1EF0100F08BFB0EC108A80F3DA
:104270000988BFF36F8F7047E8010020EFF30580D6
:10428000704700000648804706480047FEE7FEE703
:10429000FEE7FEE7FEE7FEE7FEE7FEE7FEE7FEE7F6
:1042A00009C70008AD4100082DE9F05F0546002070
:1042B00092469B4688460646814640241BE0284697
:1042C00041464746224600F09CFD53465A46C01AD6
:1042D000914110D311461846224600F083FD2D1A55
:1042E00067EB01084F4622460120002100F07AFDCD
:1042F00017EB00094E41201EA4F10104DFDC484603
:1043000031462A464346BDE8F09F40EA01039B0739
:1043100003D009E008C9121F08C0042AFAD203E03A
:1043200011F8013B00F8013B521EF9D27047D2B29E
:1043300001E000F8012B491EFBD270470022F6E78E
:1043400010B513460A4604461946FFF7F0FF20460B
:1043500010BDCAB2401E10F8011F8A4202D00029C7
:10436000F9D100207047421C10F8011B0029FBD135
:10437000801A704710B5002200E0521C835C8C5CF0
:10438000A34201D1002BF8D1D8B2E1B2401A10BD3E
:1043900030B504460020034600E05B1C934203D284
:1043A000E05CCD5C401BF8D030BD00000FB400B520
:1043B0008DB010A909900B9000914FF0FF300A903A
:1043C00000200C9005480690054807906A4609A809
:1043D0000F9900F04DFD0DB05DF814FB8D4E0008F7
:1043E000AB4E00082DE9FF5F1D464FF0FF3BD5E9BE
:1043F000014691465F464FF00008A9697F1C01986D
:104400008847296A824688470028F6D1BAF1FF3FDB
:104410000CD024F4C064002E19DD600614D5BAF166
:104420002B0F09D0BAF12D0F0ED103E0584604B07E
:10443000BDE8F09F44F48064A9697F1C0198884717
:10444000761E8246002E02DDBAF1300F03D0B9F19C
:10445000000F26D032E0A969761E44F400747F1C58
:10446000019888478246002E05DDBAF1780F06D004
:10447000BAF1580F03D0B9F1000F10D01EE0B9F116
:10448000000F02D0B9F1100F18D1A969761E24F4DB
:1044900000747F1C019888478246102002E00820A3
:1044A00000E00A20814609E008FB0908A969761E98
:1044B00044F400747F1C019888478246002E05DD75
:1044C0004946504600F0BFFC0028EDDAE969019842
:1044D0008847A00502D46FF00100A8E7E00725D1C6
:1044E000600613D5600502D5C8F1000000E0404623
:1044F00029680A1D2A600968220501D5087015E09F
:10450000220701D5088011E008600FE02868011D2E
:1045100029600068210502D580F8008006E02107A7
:1045200002D5A0F8008001E0C0F8008038467EE7A0
:104530002DE9FF5FD2E901A74FF000089169994684
:104540001446DDF838B0464601988847054659EAD2
:104550000B0005D009E0A169761C01988847054643
:10456000216A284688470028F5D1681C03D05FEAF5
:10457000CA7005D015E04FF0FF3004B0BDE8F09FE1
:104580002068011D2160D0F800800AE05FEACA704F
:1045900001D108F8015BA169761C7F1E019888474C
:1045A0000546002F1ADD681C18D0B9F1000F0DD098
:1045B000E81705EBD060421120F01F0059F82210D7
:1045C0002A1A012090400142E0D107E0BBF1000F20
:1045D000DCD1216A284688470028D7D0E1690198B4
:1045E0008847BBF1000F07D1002E05DD5FEACA70D6
:1045F00002D1002188F80010A068B84203DDBBF1A9
:10460000000F03D017B16FF00100B6E73046B4E7F2
:104610002DE9FF4F087883B09946FF2805D0491C43
:104620002D2804D00024002008E000200BE0012405
:10463000F9E700EB800003EB4000491C0B78FF2BEF
:10464000F7D104B1404200230293147819461D4665
:104650002D2C01D02B2C04D1521C2D2C13D0002436
:104660000294AA461478FF2C0FD00A25A3FB0578E4
:1046700001FB05814FF0000C03FB0C11521CE319E8
:104680004AEB0101EEE70124EAE7814453EA010025
:1046900002D019F5C87F06DA03980021C0E900119D
:1046A00007B0BDE8F08F0025AE4E2F46DFF8B88288
:1046B000184600F0F0FCCDE90001B9F1000002DA83
:1046C000C9F1000400E004460023A74A1AEB030BDB
:1046D00042EB045A12E0E00707D02A463346384638
:1046E000414600F0ECF9074688462A463346104614
:1046F000194600F0E4F905460E466410002CEAD194
:10470000DDE90001B9F1000F5A46534606DA00F020
:1047100048FA3A46434600F044FA05E000F0CFF983
:104720003A46434600F0CBF9029A0AB181F00041C3
:10473000039AC2E90001B3E72DE9FF4F1F468DB090
:10474000D7E901464FF0FF382E2045464FF00009CB
:104750000B90B9696D1C0E988847396A8246884764
:104760000028F6D1BAF1FF3F0AD024F4D064002E1D
:1047700011DDBAF12B0F08D0BAF12D0F0BD102E0E9
:10478000404611B08DE744F48064B9696D1C0E9801
:1047900088478246761E6946600501D52D2000E0D7
:1047A0002B208DF8000001F1010B0DF1200809E02C
:1047B000B9696D1C0E98884782460F9844F40074BE
:1047C000761E0560002E02DDBAF1300FF0D00B9995
:1047D0008A453ED144F0800406E00F99681CA9F197
:1047E000010944F400740860B9696D1C761E0E98C6
:1047F000884782463028F0D02BE00B998A4505D1B6
:10480000200603D444F08004761E18E0504609F0D8
:104810000FFE08B30DF11301761E44F400748B45AE
:1048200008D2AAF130000BF8010B200607D5A9F138
:10483000010003E0200602D409F101008146A00531
:1048400002D50F99681C0860B9696D1C0E988847DD
:104850008246002ED1DC53E0002E51DDBAF1650F07
:1048600002D0BAF1450F4BD1A00549D5B9696D1CED
:1048700024F44074761E0E9888478246002E0CDD84
:104880002B2804D0BAF12D0F07D144F48074B969F4
:104890006D1C0E9888478246761EE00501D52D21B5
:1048A00000E02B2108F8011BCDF82C8021E00DF150
:1048B0002901761E44F4007488450CD2AAF1300018
:1048C00010F0FF0088F8000002D10B99884509D943
:1048D00008F1010806E0E00501D5244801E042F2B4
:1048E0000F708146B9696D1C0E98884782460F98F3
:1048F0000560002E04DD504609F09AFD0028D6D14F
:10490000F9690E988847FF208BF8000088F80000AE
:104910000020069007904B466A4608A906A8FFF7B4
:1049200077FEA00502D46FF001002AE714F0240FEF
:104930000AD0E00714D1DDE906123868031D3B6098
:104940000068C0E900120BE0DDE9060100F018FA8A
:104950000146E00704D13868021D3A600068016032
:1049600028460EE7000014400000F03FF1D8FFFF9A
:104970002DE9FE4F804681EA0300C00F0C460090EF
:1049800021F0004123F00045B8EB0200A94105D217
:104990004046214690461C460B46024623F0004006
:1049A000104347D0270DC7F30A00C3F30A51029002
:1049B000401A019040286BDAC3F3130040F4801BC7
:1049C0000098924620B10023D2EB030A63EB0B0B55
:1049D00001985946C0F14002504600F003FA0646DD
:1049E0000D4650465946019A00F01BFA10EB08009C
:1049F0006141002487EA115284EAE7731A4340D0E8
:104A0000009A62B3019A012A4FEA075215DC001B93
:104A100061EB02014FF0004202EA0752CDE9004289
:104A2000001C41F5801132462B4600F095FA03B088
:104A3000BDE8F08F40462146F9E7001B61EB02011B
:104A4000001C41F5801300185B412018A2F50017E7
:104A500047EB030140EAD570B6196D4111E06D08CE
:104A60004FEA360645EAC0754FEA0752001B61EB74
:104A70000201001C41F5801149084FEA300000197D
:104A8000514132462B4603B0BDE8F04F00F055BA15
:104A90000098012240000023D0EB020263EBE07398
:104AA000009821464FEAE074B8EB000061EB040186
:104AB000E9E783F000435BE781F0004158E72DE927
:104AC000FE4F81EA030404F0004421F00041009409
:104AD0004FF0000B23F0004350EA01045ED052EA8D
:104AE00003045BD0C3F30A54C1F30A552C44A4F267
:104AF000F3340194A0FB0254C1F3130141F480117B
:104B0000C3F3130343F4801301FB024400FB034E81
:104B1000840A970A44EA815447EA8357A4FB07684A
:104B200002958D0A05FB07854FEA932C04FB0C5474
:104B30002705029D4FEA065847EA1637B5EB0805E8
:104B40006EEB070C870E920E47EA811742EA83123A
:104B5000A7FB0201B6EB0B0164EB00042B0D43EA4B
:104B60000C335E1844EB1C50DA465146E7FB020159
:104B7000C5F313044FEA0B3343EA14534FEA0432EC
:104B8000019C43EA0603A4F10C040294009CCDE9C5
:104B900000B400F0E1F903B0BDE8F08F0020014659
:104BA000F9E72DE9F04D81EA030404F0004B21F010
:104BB000004514464FF0000A23F0004150EA050278
:104BC00020D054EA01021DD0C5F30A570246C5F3AE
:104BD0001303C1F31300C1F30A5640F4801543F4E4
:104BE0008013A7EB0608101BD64608F2FD3873EBBE
:104BF000050002D308F1010801E092185B41B8F109
:104C0000000F03DA00200146BDE8F08D00204FF4CC
:104C10008011064684460EE0171B73EB050705D38B
:104C2000121B63EB050306434CEA010C49084FEAEB
:104C3000300092185B4150EA0107EDD152EA0300BF
:104C400012D082EA040083EA0501084305D0101B54
:104C5000AB4106D20122002306E000224FF00043C0
:104C600002E06FF0010253101AEB06004CEB085102
:104C700010EB0A0041EB0B01BDE8F04D00F05DB90F
:104C80000EB5C10F80EAE0700844CA07002140F267
:104C900033438DE80E000A460B4600F05DF903B081
:104CA00000BD0EB540F2334102910021CDE9001163
:104CB0000A460B4600F050F903B000BD70B5C1F3D1
:104CC0000A5201F000450024C1F3130140F2FF3302
:104CD00041F480119A4201DA002070BD40F2334362
:104CE0009A42A2F2334203DC524200F08AF800E01A
:104CF00090402C43F1D0404270BD00F0004230F0B3
:104D000000400AD0C10D01F56071C0F3160042EAFF
:104D10000151C20840071143704700200146704707
:104D200030B5041E71F1000404DB4FF00044404232
:104D300064EB0101141E73F1000405DB1C464FF007
:104D40000043524263EB04038B4208BF824230BDF2
:104D500030B5041E71F1000404DB4FF00044404202
:104D600064EB0101141E73F1000405DB1C464FF0D7
:104D70000043524263EB0403994208BF904230BDA6
:104D800001F0004330B421F0004150EA010206D0A6
:104D90000A0DA2F56072C1F31301002A02DC30BCD7
:104DA00000207047440F44EAC104C100E01830BC41
:104DB00000EBC25000F08AB830B50B460146002027
:104DC0002022012409E021FA02F59D4205D303FACD
:104DD00002F5491B04FA02F52844151EA2F101024E
:104DE000F1DC30BD202A04DB203A00FA02F1002079
:104DF00070479140C2F1200320FA03F31943904019
:104E00007047202A04DB203A21FA02F00021704783
:104E100021FA02F3D040C2F1200291400843194622
:104E20007047202A06DBCB17203A41FA02F043EA0A
:104E3000E07306E041FA02F3D040C2F12002914053
:104E40000843194670473A2800D2303820F0200233
:104E5000412A01D3A2F13700884201D34FF0FF303D
:104E600070470000026811441378016018467047CB
:104E7000D160044951610449116200211161114658
:104E800000F046B9654E000805510008426842B17D
:104E9000016811F8013B23B1521EC0E90012184607
:104EA00070470121C160881E704742685AB1C368CB
:104EB000016843B983688B4205D0491E521CC0E982
:104EC0000012002070474FF0FF3070470029A8BF44
:104ED0007047401C490008BF20F00100704710B423
:104EE000B0FA80FC00FA0CF050EA010404BF10BCD8
:104EF000704749B1CCF1200421FA04F411FA0CF105
:104F000018BF012121430843A3EB0C01CB1D4FEA3D
:104F100000614FEA102042BF002010BC704700EB38
:104F2000C35010440029A4BF10BC7047401C490066
:104F300008BF20F0010010BC704710B5141E73F1BB
:104F4000000408DA401C41F1000192185B411A4349
:104F500001D120F0010010BD2DE9F04D92469B4695
:104F600011B1B1FA81F202E0B0FA80F2203290463B
:104F7000FFF738FF04460F4640EA0A0041EA0B01FA
:104F800053465A46084313D0114653EA010019D03C
:104F9000C8F140025046FFF734FF05460E46504622
:104FA00059464246FFF71EFF084305D0012004E0A2
:104FB00020463946BDE8F08D0020054346EAE076FC
:104FC0002C4337430A986305E40AA0EB080000224B
:104FD000FD0A44EA47540A3002D500200146E9E7B9
:104FE000010510196941DDE9084500196941BDE86D
:104FF000F04DA2E72DE9F04D00231A461B1A8A4115
:1050000003DB00200146BDE8F08DC1F30A52C1F375
:10501000130141F480154FF0000BD10702D10018A5
:105020006D41521E0027044640F2FF11384601EB45
:10503000620A3E468046024600204FF48011FFF788
:10504000E0FEC2197141BB1846EB0100B4EB030C42
:1050500075EB000C04D3E41A65EB000517460E4609
:10506000241908F101006D4180463428E3DDF91967
:1050700046EB0600091BA84103D24FF0FF3213464E
:1050800001E0002213461BEB070046EB0A51BDE886
:10509000F04DFFF752BF0EB540F2334202920022AC
:1050A000CDE900221346FFF757FF03B000BDC1F35F
:1050B0000A52C1F3130140F2FF3341F480119A42C6
:1050C00002DA00200146704740F233439A42A2F2CE
:1050D000334202DC5242FFF794BEFFF783BE00006A
:1050E000064C074D06E0E06840F0010394E8070035
:1050F00098471034AC42F6D3FFF75CF8A04604089A
:10510000C0460408C0B24FF4F05100F099B9000055
:105110002DE9F34F8BB04FF0000801F10C000C4665
:105120004FF0010B46460DF1080A0190626901211A
:1051300001989047051E2DD0252D2CD0216A884737
:10514000C0B16269012101989047216A884700280F
:10515000F7D1411E62690198904700E0761CA16971
:105160000B988847216A88470028F7D1E1690B9896
:105170008847DBE7A1690B9888470746A84201D119
:10518000761CD3E7E1690B9888477F1C02D1B8F100
:10519000000F6FD047E1002762693D46394601980C
:1051A00090472A2804D1626901210198904701257E
:1051B000DFF888926269012101989047A0F13001DF
:1051C0000A290AD24F45E5DC07EB870100EB4107CE
:1051D000303FDFD445F01005ECE7E90601D46FF06D
:1051E00000476C280AD04C2814D0682815D06A28AB
:1051F0000DD074281CD07A281AD01DE062690121D4
:10520000019890476C2802D045F0040514E045F061
:1052100002050DE045F020050AE0626901210198D0
:105220009047682802D045F0080505E045F4006580
:105230006269012101989047C4E9015765283DD072
:1052400019DC58287AD00CDC452837D004DC252816
:1052500026D0412831D131E046282FD047282CD103
:105260002CE05B2877D0612828D063287CD0642884
:1052700023D15AE0D1E06F2848D008DC66281DD041
:1052800067281BD0692821D06E2816D127E0702806
:1052900045D0732868D0752847D078280DD14DE0C7
:1052A000A1690B988847054625283FF469AFE16955
:1052B0000B9888476D1C3FF46AAFB4E023466A46FA
:1052C0006FF001000B99FFF737FA9FE045F04000BF
:1052D0006060A80723464FF0000236D43EE0E8079E
:1052E0007FF447AF2068011D21600068290501D5C2
:1052F00006701BE7290701D5068017E7A90703D524
:10530000F117C0E9006111E706600FE745F04000C2
:105310006060A80723464FF0080216D41EE040F64E
:105320000E0125EA0100606016E045F04000606073
:10533000A80723464FF00A0207D40FE045F04000CB
:105340006060A80708D5234610226FF001000B9972
:10535000AFF300805AE007E0234610226FF001000F
:105360000B99FFF73FF851E04FF000094F464B46CD
:10537000632802D05B2807D041E02079C00601D421
:105380000120A06001273AE062690121019890475D
:105390005E2805D14FF0010962694946019890479E
:1053A000216939B900210A46534643F82120491C96
:1053B0000829FADBB0B3216969B9C11700EBD162E2
:1053C00053110AEB830122F01F02821A01200B689D
:1053D000904003430B6062690121019890475D286A
:1053E000E8D1B9F1000F09D00020514651F8202032
:1053F000D24341F82020401C0828F7DB02AB2246AC
:1054000000976FF001000B99FFF792F800280CDA73
:10541000401C08D1BBF1000F05D04FF0FF300DB09C
:10542000BDE8F08FFFE74046F9E7E90701D108F151
:10543000010806444FF0000B78E60000CCCCCC0C01
:105440007F2801D9002208E0064A02EB5002C0077B
:10545000127800D1120902F00F020120904008409A
:10546000704700000846040870B58C1810F8015BFE
:1054700015F0070301D110F8013B2A1106D110F8ED
:10548000012B03E010F8016B01F8016B5B1EF9D1F1
:105490002B0705D40023521E0DD401F8013BFAE777
:1054A00010F8013BCB1A921C03E013F8015B01F8E2
:1054B000015B521EF9D5A142D8D3002070BD000077
:1054C0000C4808B5016841F080510160006800F0A7
:1054D0008050009002F032FD06481038016841F417
:1054E00080210160006800F480200090BDE8084041
:1054F00002F07EBC403802402DE9FF4107F0A8FAD7
:10550000002007F011F90021B023DC22084607F043
:10551000AFFC67A000234FF6FF74009022461946A7
:10552000184607F045F966A0002300902246122194
:10553000184607F03DF94FF48060654D4100CDE914
:10554000005183002A4601219FED620ACDE90250F5
:10555000614806F0FDFE61A04FF4FC660090002358
:1055600032461221782007F023F95EA00023009034
:1055700022462421184607F01BF90DF003FF5CA01A
:105580000090002332462421582007F011F95BA037
:105590000023009022463621184607F009F95A48A0
:1055A00000F00BF9594800F008F90221564801F0C3
:1055B00025FA0221554801F021FA4DA00090002360
:1055C00032463621502007F0F3F851A00023009016
:1055D00022464821184607F0EBF84FF400415048A6
:1055E00002F002FB4FF4784728B14EA000234FF69B
:1055F000E07200900BE006F013FC20B14CA00023F9
:105600003A46009003E035A000233246009048213E
:10561000702007F0CDF848A00023009022465A21C0
:10562000184607F0C5F8484C206878B104F086FEAB
:1056300020B13FA000233A46009003E027A00023BA
:10564000324600905A21702007F0B2F8FFF738FF79
:105650003E4800680188012907D0216819B300F08D
:105660001BFD10B105F0F6FB01E005F0E9FEC020DE
:1056700004F01EFE244801F09EFE0028FAD12348C3
:1056800001F099FE0028FAD101223C21284602F0BF
:10569000BAFA4FF4FA7002F097F804B00020BDE8AF
:1056A000F04107F041B82A490968C160DAE7000013
:1056B000496E697469616C6C696E672E2E2E0000EC
:1056C000537465707065725F496E69742E2E2E007A
:1056D000001C02406666E63F100B002053756363B2
:1056E000657373005365745F444255532E2E2E002C
:1056F000436F6D706C6574650000000043414E5F40
:105700005365742E2E2E000078020020A002002087
:105710005365745F53445F436172642E2E2E000004
:10572000001002404E6F74204578697374000000C9
:105730004661696C656400004C6F616420636F6E44
:105740006669672E2E2E00008001002028000020B0
:1057500024000020FEE70000014801F02EBB0000FD
:1057600078020020014801F028BB0000A0020020C0
:1057700030B589B0DDE90C54029100210491059106
:1057800008210691110A8DF800108DF80120190AE0
:105790008DF80210290A8DF804108DF80550210AA1
:1057A0008DF806108DF803308DF8074008AB6A4677
:1057B00002A901F035F909B030BD10B58AB0044630
:1057C00002200021CDE905010391012004910791F8
:1057D000CDE908010091019102916946204601F04E
:1057E000A1F928B90221204601F008F9002800D0CB
:1057F00001200AB010BD06F0A9FD06F06FFDFCE720
:105800002DE9F04FFF482DED068B83B04368FE482D
:10581000A0F1180400F1D801B4F9062000F19006B7
:1058200000F1480800F5B47900F5907A5042F74D40
:105830009FEDF78A002713B1012B7DD0A4E100EE84
:10584000100AB5F93200F8EEC00A00EE100A084658
:10585000B8EEC00A04F06AFCBDEEC00A10EE100AF1
:1058600001B20091B4F9040000EE100AB5F922006B
:10587000F8EEC00A00EE100A3046B8EEC00A04F096
:1058800055FCBDEEC00A10EE100A0FFA80FBB4F909
:105890000200404200EE100AB5F91200F8EEC00A0C
:1058A00000EE100A4046B8EEC00A04F03FFCBDEE20
:1058B000C00A10EE100A06B2B4F9000000EE100A99
:1058C000B5F90200F8EEC00A00EE100ACE48B8EEB4
:1058D000C00A04F02BFCBDEEC00A0099334610EE5E
:1058E000100ACDE900B102B24FF40071C948FFF7C8
:1058F0003FFFB4F90A00404200EE100AB5F9520029
:10590000F8EEC00A00EE100A4846B8EEC00A04F0ED
:105910000DFCBDEEC00A10EE100A06B2B4F9080084
:1059200000EE100AB5F94200F8EEC00A00EE100AC7
:105930005046B8EEC00A00E00AE004F0F7FBBDEE06
:10594000C00A0097334610EE100A019702B216E122
:10595000B5F932C0AC4C0C3C8445B4F9063003DBDD
:10596000B5F93200904213DD7BB16432504200EE53
:10597000100AB5F93200F8EEC00A00EE100A084627
:10598000B8EEC00A04F0D2FB07E0B0EE480A04E02B
:10599000584200EE100AB8EEC00AB5F92210BDEE6A
:1059A000C00A10EE100A0FFA80FB97481838B0F9B9
:1059B0000400814204DCB5F922104242914213DA1C
:1059C000A18871B1643000EE100AB5F92200F8EE3A
:1059D000C00A00EE100A3046B8EEC00A04F0A6FB7A
:1059E00008E0B0EE480A05E0B4F9040000EE100A41
:1059F000B8EEC00AB5F91210BDEEC00A10EE100ADA
:105A000006B281481838B0F902004242914203DBE5
:105A1000B5F91210814214DD618879B164304042D9
:105A200000EE100AB5F91200F8EEC00A00EE100AF6
:105A30004046B8EEC00A04F079FB09E0B0EE480A2F
:105A400006E0B4F90200404200EE100AB8EEC00AC7
:105A5000BDEEC00A10EE100A00B20290B5F90210B5
:105A6000DFF8A481A8F11808B8F90000814204DC2D
:105A7000B5F902104242914213DA218871B16430C3
:105A800000EE100AB5F90200F8EEC00A00EE100AA6
:105A90005D48B8EEC00A04F049FB08E0B0EE480AE1
:105AA00005E0B4F9000000EE100AB8EEC00ACDE936
:105AB000006BBDEEC00A4FF40071029B10EE100A9D
:105AC00002B25448FFF754FEB5F95210B8F90A0073
:105AD00046464242914203DBB5F95210814214DD41
:105AE000618979B16430404200EE100AB5F9520084
:105AF000F8EEC00A00EE100A4846B8EEC00A04F0FC
:105B000015FB09E0B0EE480A06E0B4F90A0040428D
:105B100000EE100AB8EEC00AB5F94210BDEEC00A98
:105B200010EE100A0FFA80F8B6F90800814204DC82
:105B3000B5F942104242914213DA218971B16430C1
:105B400000EE100AB5F94200F8EEC00A00EE100AA5
:105B50005046B8EEC00A04F0E9FA08E0B0EE480A90
:105B600005E0B4F9080000EE100AB8EEC00A00978C
:105B700043460197BDEEC00A10EE100A02B240F291
:105B8000FF112448FFF7F4FD234CE06AFFF778F893
:105B90009FED229B53EC192BFEF791FF9FED21AB5C
:105BA00053EC1A2BFEF78BFFFFF7EAF8DFF858806B
:105BB000DFF87890A8F1300800EE100AD8ED020A5C
:105BC00099ED021A4D4608F5527070EE810A04F004
:105BD000ADFAB4F92200F0EE400A00EE100A08F522
:105BE0001C70B8EEC00A04F0A1FABDEEC00A10EEB7
:105BF000100A06B2E069FFF743F853EC192BFEF7E1
:105C00005EFF15E020000020F0050020B009002014
:105C10000000000078020020300A00200000000090
:105C200000002440000000000000203F6001002030
:105C300053EC1A2BFEF743FFFFF7A2F8D8ED010A49
:105C400095ED011A00EE100A08F5407070EE810A19
:105C500004F06CFAB4F91200F0EE400A00EE100AFB
:105C600008F50A70B8EEC00A04F060FABDEEC00A8A
:105C7000A9F5A07510EE100A0FFA80FA287830B353
:105C8000E068FEF7FDFF53EC192BFEF718FF53EC0D
:105C90001A2BFEF714FFFFF773F8D8ED000A99ED01
:105CA000001A00EE100A08F52E7070EE810A04F05A
:105CB0003DFAB4F90200F0EE400A00EE100A08F5D1
:105CC000F070B8EEC00A04F031FAB0EE408A5346E4
:105CD000BDEEC80A4FF40071CDE9006710EE100A5E
:105CE00002B23448FFF744FD334806F06BFA3348FC
:105CF0000178491C01703048C16AA868816001219F
:105D0000018008460CF067FBDFF8B8802C4F08F1E3
:105D10009005002405F1300604EB440104EBC400B7
:105D200008EB810207EBC00092ED020AD0ED030AF6
:105D3000B4EE600AF1EE10FA27D192ED010AD0ED2F
:105D4000020AB4EE600AF1EE10FA1ED192ED000ADA
:105D5000D0ED010AB4EE600AF1EE10FA15D105EBB0
:105D60008401D0ED040A91ED000AB4EE600AF1EE70
:105D700010FA0AD106EB8401D0ED050A91ED000A74
:105D8000B4EE600AF1EE10FA0CD006EB8401D1ED0E
:105D9000000A05EB840191ED000A09492439095DE7
:105DA00004F0AEF9641C0C2CB6DB03B0BDEC068B22
:105DB000BDE8F08FA0020020100B00207A01002027
:105DC000F0050020700000202DE9F0471C4DDFF8A1
:105DD00074800024A5F13006A5F1C00708F124095C
:105DE00005EB840004EBC403D0ED000A06EB84004D
:105DF00018F8041090ED000A04EB440007EB800251
:105E000009EBC30004F026FA641C0C2CE8DB0E48F6
:105E1000C06AFEF735FF9FED0D1B53EC112BFEF70B
:105E2000C0FE41EC100B0BF0A1FF51EC100BFEF784
:105E3000A7FFFEF762FF074AC2E91201BDE8F0873B
:105E400030010020CC050020100B002000000000D5
:105E50000000444020000020FFF7B6FFFFF7D0FC11
:105E6000FCE770B504460D46084600F007F800212F
:105E700060606180A060E060258070BD0CF082B839
:105E800010B5418869B18268491E12F8013B8260F1
:105E90004180048841680C44944200D181601846D6
:105EA00010BD002010BD30B5C2681170C268521C10
:105EB000C260438801888B4208D183685B1C836081
:105EC000446865189D4203D1846001E05B1C4380F7
:105ED00043681944914200D1C36030BD3EB5114CB6
:105EE000607820B108F0D6FE6078401E60700E48E1
:105EF000B0F95210B0F942204942B0F93230029163
:105F00005B42CDE90032B0F92230B0F912104A42BA
:105F1000B0F9021005A007F011FBBDE83E401420C7
:105F20000CF059BA7C010020B0090020537065655F
:105F300064202564202564202564202564202564B0
:105F40002025640A000000007047FFF7FDFFFFF7FF
:105F5000C5FFFCE7014801F0CBBA0000180500209E
:105F6000014801F0C5BA0000B804002001680A4BDE
:105F7000CAB2103AA3FB02321209084B9B5CC365FC
:105F8000032A04D96FF30901091D816502E06FF34B
:105F900009018165806D7047ABAAAAAA76440408FE
:105FA000014600208A6A8B69002B0FD0B3F5005F91
:105FB0001DD08AB3012A30D0022A2ED0032A04D160
:105FC000C96A11F0807F00D0012070471AB1012A00
:105FD00007D0022AF9D1C96A11F0807FF5D00120DB
:105FE0007047C96AB1F1C07FFAD1012070475AB138
:105FF000012A0BD0022A07D0032AF7D1C96AB1F1CE
:10600000C07FF3D10120704701207047C96A11F0A9
:10601000807FFAD001207047FFE701207047000021
:10602000164800B54068ADF5177D28B3122214A1BB
:1060300068460AF0C7FBE8B90022134668460AF032
:106040001AFAB8B9134896AB1422016868460AF0E8
:10605000FAFF30B99698142803D168460AF095FFE4
:1060600018B103200DF5177D00BD68460AF0D2F97E
:106070000028F7D00120F5E70A20F3E77C01002093
:10608000303A4D697373696C655F50442E64617476
:1060900000000000280000201C4800B54068ADF555
:1060A000177D80B313221AA168460AF08BFB40BB10
:1060B0000022134668460AF0DEF910BB194896AB79
:1060C0001422016868460AF0FFFD10B9969814285A
:1060D00003D002200DF5177D00BD0022134668464F
:1060E0000AF0C9F968B996AB0122002168460AF0A6
:1060F000AAFF08B10320EDE768460AF08BF90028F3
:10610000E8D00120E6E7FFE70A20E3E77C01002072
:10611000303A4D697373696C655F50442E646174E5
:106120000000000028000020704700002DE9F04F1B
:10613000E54E04212DED028B83B0304601F054FD75
:106140000125E24C012801D1206828B10421304604
:1061500001F04AFD20B108E0256003F0C3FF04E030
:106160002068012801D100202060A06800287DD18E
:10617000A346A5606068DFF858A3D64D4FF6FF76BA
:10618000012806D0D44AD549022870D003286FD000
:106190008EE1D3A0D44C0090002394ED030A324644
:1061A0001621522006F0BEFBA168D0A0CDE9000167
:1061B0000023324616219A2006F0D3FBE06AFEF750
:1061C0005FFD9FEDCB8B53EC182BFEF7EAFC41EC07
:1061D000100B0BF0CBFD51EC100BFEF7D1FD00EED8
:1061E000100ABFA00090002332463E21522006F044
:1061F00099FBE06AFEF744FD53EC182BFEF7D1FC47
:10620000FEF7BEFD00EE100AB5A000900023324656
:106210003E219A2006F086FBB7A00090002395ED62
:10622000210A32465021184606F07CFBB4A00090AB
:1062300095ED220A002332465021402006F072FBE1
:10624000B1A0009095ED230A002332465021802012
:1062500006F068FBAEA00090B1480023324690EDF6
:10626000CE0A6421184606F05DFB02E023E139E026
:1062700081E0DAF82C00FEF703FD9FEDAA1B53EC3A
:10628000112BFEF71CFC9FEDA91B53EC112BFEF705
:1062900016FCFEF775FD00EE100AA6A00090002384
:1062A00032467821012006F03DFBA6A00090A948C7
:1062B0000023324690ED020A8C21012006F032FBC9
:1062C000A54890ED000B51EC100BFEF759FD00EEC8
:1062D000100AA2A0009000233246A021012006F05F
:1062E00021FBE5E0002490468946A0A00090794873
:1062F00004EB440100EB8107C4EBC40000EB041184
:10630000262000EB410597ED000AA8B20023324693
:10631000142106F007FB95A0009097ED010AA8B2A2
:1063200000233246282106F0FDFA90A0009097ED58
:10633000020AA8B2002332463C2106F0F3FA08EB29
:106340000411B1F902108BA0CDE90001A8B200231D
:106350003246502106F005FB39F9141085A0CDE92D
:106360000001A8B200233246642106F0FAFA641C48
:10637000042CBADB47E00024904689467BA00090BD
:10638000544804EB440100EB8107C4EBC40000EB6C
:106390000411262000EB410597ED0C0AA8B200235A
:1063A0003246502106F0BEFA70A0009097ED0D0A1B
:1063B000A8B200233246642106F0B4FA6BA0009024
:1063C00097ED0E0AA8B200233246782106F0AAFA09
:1063D00008EB0411B1F9021066A0CDE90001A8B2E2
:1063E00000233246142106F0BCFA39F9141061A0DA
:1063F000CDE90001A8B200233246282106F0B1FA07
:10640000641C042CBADB444634F9421F59A0CDE980
:106410000001002332468C21262006F0A2FAB4F9AE
:10642000101054A0CDE90001002332468C215420E5
:1064300006F097FABAF9021054464EA0CDE90001D1
:10644000002332468C21822006F08BFAB4F9121018
:1064500048A0CDE90001002332468C21B02006F08F
:1064600080FAB9F9081043A0CDE900014C46002399
:106470003246A021262006F074FAB4F90A103DA095
:10648000CDE9000100233246A021542006F069FA2C
:1064900039A0009000233246A021822006F088F91E
:1064A00035A0009000233246A021B02006F080F9EC
:1064B0000020CBF8080003B04620BDEC028BBDE8FD
:1064C000F04F0BF088BF0000000402406C01002078
:1064D000300A002070000020B0090020D8050020FC
:1064E00025382E3266000000100B0020253864008D
:1064F0000000000000004440503A25352E3266006E
:10650000493A25352E326600443A25352E3266004A
:106510005049446F75743A25382E326600000000E9
:10652000F0050020000000000000244000000000F2
:106530000000203F416E676C653A2531322E32668D
:10654000000000005461726765743A2531322E32C2
:1065500066000000C00500209001002041636375C3
:10656000726163793A25362E3266000025352E3267
:1065700066000000253564002D2D2D2D2D00000016
:10658000012003F0B7BE000038B50021244A0846B8
:1065900006F0E6F823A000234FF6FF740090224691
:1065A0001946562006F004F921A000230090224647
:1065B00019469A2006F0FCF820A0009000232246FD
:1065C0002921562006F0F4F81FA00090002322464F
:1065D00029219A2006F0ECF81423DC2219465020D9
:1065E000009406F0D3F92823DC22194650200094A9
:1065F00006F0CCF93C23DC2219465020009406F02A
:10660000C5F94F23DC2219465020009406F0BEF94C
:1066100098224F2300211046009406F0B7F938BDA8
:1066200076480108CAA3D3E0BDC7B6C80000000081
:10663000CAA3D3E0B2BDCAFD00000000D4C6CCA8F6
:10664000BDC7B6C800000000BEF8B6D4CEBBD6C3E6
:106650000000000038B557A000234FF6FF740090EB
:1066600022461946082006F0A3F853A00090002304
:10667000224614210C2006F09BF850A00090002325
:10668000224628210C2006F093F84DA0009000230C
:1066900022463C210C2006F08BF84AA000230090F3
:1066A00022465021184606F083F848A000900023A7
:1066B00022466421042006F07BF83EA000900023CF
:1066C00022467821082006F073F83EA000230090AF
:1066D00022468C21184606F06BF83CA0009000235F
:1066E0002246A021042006F063F839A00023009080
:1066F00022461946252006F05BF836A000230090BC
:1067000022461946532006F053F833A00023009088
:1067100022461946812006F04BF830A00023009055
:1067200022461946AF2006F043F82DA00090002322
:1067300022467821252006F03BF82AA0009000236D
:1067400022467821532006F033F827A0009000233A
:1067500022467821812006F02BF824A00090002307
:1067600022467821AF2006F023F82222B023002110
:106770001046009406F00AF95222B0230021104678
:10678000009406F003F98022B02300211046009403
:1067900006F0FCF8AE22B02300211046009406F06B
:1067A000F5F87623DC2219460020009406F0EEF876
:1067B00038BD0000494400005000000049000000BE
:1067C00044000000D7AACBD9000000005345540074
:1067D0004D3100004D3200004D3300004D340000BB
:1067E0004D3500004D3600004D3700004D3800009B
:1067F00038B557A000234FF6FF7400902246194683
:10680000082005F0D5FF53A0002300902246142154
:10681000184605F0CDFF51A0009000232246282104
:10682000042005F0C5FF4AA00090002322463C2129
:10683000082005F0BDFF4AA0009000232246502109
:106840000C2005F0B5FF47A00090002322466421EC
:106850000C2005F0ADFF44A00090002322467821D3
:106860000C2005F0A5FF3BA00023009022468C21C0
:10687000184605F09DFF39A0009000232246A02174
:10688000042005F095FF39A0002300902246194608
:10689000252005F08DFF36A00023009022461946E2
:1068A000532005F085FF33A00023009022461946AF
:1068B000812005F07DFF30A000230090224619467C
:1068C000AF2005F075FF2DA00090002322463C214B
:1068D000252005F06DFF2AA00090002322463C21D0
:1068E000532005F065FF27A00090002322463C219D
:1068F000812005F05DFF24A00090002322463C216A
:10690000AF2005F055FF2222B0230021104600944D
:1069100006F03CF85222B02300211046009406F005
:1069200035F88022B02300211046009406F02EF89E
:10693000AE22B02300211046009406F027F83A2337
:10694000DC2219460020009406F020F838BD000033
:1069500049440000D7AACBD9000000005345540099
:106960005000000049000000440000004D310000CC
:106970004D3200004D3300004D3400004D35000015
:106980004D3600004D3700004D38000010B54FF473
:10699000005000F0F7FF4FF4804000F0F3FFBDE837
:1069A00010404FF4004000F0EDBF72B601F00EFA57
:1069B000FEE7000010B558B1084C491E0BD310F883
:1069C000013B5340DBB234F8133083EA1222F4E780
:1069D0004FF6FF7010BD104610BD00007496010800
:1069E00010B5054C04E000BF10F8013B5340E25CD9
:1069F000491EF9D2104610BD7495010890F8202068
:106A0000012A07D0022A05D0416A41F4802141625F
:106A100001207047006842691143416100207047BE
:106A200070B490F82040D0F800C0DCF808C0012C09
:106A300008D0022C06D0416A41F48021416270BC2A
:106A4000012070470CF080640CF000652C4302D1EB
:106A50001CF0805F5FD0CCF3016CBCF1020F06D953
:106A6000416A41F40001416270BC01207047012479
:106A700004FA0CF41C608B684FF4C0749BB1CD68B1
:106A800004EB0C162B434D6843EAC5030568AB5174
:106A90004FF4C273066803EB0C130D69F550097DC2
:106AA000012909D00DE00D88CB6804EB0C1643EAF0
:106AB00045530568AB51EBE70168CD5845F4807547
:106AC000CD501179D379557941EA036193791B044B
:106AD00043EA052319434FF4C675036805EB0C150B
:106AE00059511178D37841EA0361937852781B04A5
:106AF00043EA022211434FF4C473026803EB0C1300
:106B0000D150016804EB0C100A5842F001020A50FF
:106B100070BC00207047416A41F40011416270BCB2
:106B20000120704790F82020012A07D0022A05D0C2
:106B3000416A41F480214162012070474248D0F807
:106B4000002242F00102C0F80022D0F8002222F414
:106B50007C52C0F80022D0F800224B6A42EA03229D
:106B6000C0F800220A7D012302F01F0203FA02F29C
:106B7000D0F81C329343C0F81C32CB69D3B9D0F89B
:106B80000C329343C0F80C32B1F80CC04B686CF374
:106B90001F43D1F814C000EBCC0CCCF84032B1F854
:106BA00008C00B686CF31F43D1F814C000EBCC0C89
:106BB000CCF84432CB69012B1AD1D0F80C321343F4
:106BC000C0F80C32B1F800C04B686CF31F43D1F829
:106BD00014C000EBCC0CCCF84032B1F808C0CB6844
:106BE0006CF31F43D1F814C000EBCC0CCCF844324A
:106BF0008B697BB1D0F804321343C0F804320B69BF
:106C000073B1D0F814321343C0F81432096A012961
:106C10000CD010E0D0F804329343C0F80432EEE711
:106C2000D0F814329343C0F81432EFE7D0F81C12B6
:106C30001143C0F81C12D0F8001221F00101C0F875
:106C4000001200207047000000640040704710B43C
:106C500090F820C0BCF1010F09D0BCF1020F06D0A2
:106C6000416A41F48021416210BC0120704739B172
:106C7000D0F800C0DCF810C01CF0030F7DD006E097
:106C8000D0F800C0DCF80CC01CF0030F7BD04FF430
:106C9000D87C04680CEB011C54F80C4004F004048C
:106CA0009460002C7DD0046854F80C40E4085460D3
:106CB000046854F80CC00CF0020CC2F80CC04FF47D
:106CC000DA7C04680CEB011C54F80C4004F00F044F
:106CD0001461046854F80C40C4F3072494610468F8
:106CE00054F80CC04FEA1C4CC2F814C04FF4DC72CC
:106CF000D0F800C002EB01125CF802C083F800C0BB
:106D0000D0F800C05CF802C04FEA1C2C83F801C028
:106D1000D0F800C05CF802C04FEA1C4C83F802C0F7
:106D2000D0F800C05CF80220120EDA704FF4DE7268
:106D3000D0F800C002EB01125CF802C083F804C076
:106D4000D0F800C05CF802C04FEA1C2C83F805C0E4
:106D5000D0F800C05CF802C04FEA1C4C83F806C0B3
:106D6000D0F800C05CF80220120EDA71F9B10068A8
:106D7000016941F02001016102E00BE003E010E055
:106D800010BC00207047416A41F40011416210BC00
:106D900001207047416A41F40011416210BC01209A
:106DA0007047046854F80C40640D146080E7006874
:106DB000C16841F02001C160DEE72DE9F05F0546C2
:106DC000002428684669D0F804908768D0F80CA0A1
:106DD000D0F810B0D0F8188016F0010F54D017F08A
:106DE000010F17D00121816017F0020F03D0284650
:106DF00000F014FB0EE017F0040F02D04FF4006413
:106E000008E017F0080F02D04FF4805402E0284643
:106E100000F003FB17F4807F19D029684FF48070CD
:106E2000886017F4007F03D0284600F0F9FA0EE0DE
:106E300017F4806F02D044F4005408E017F4006F98
:106E400002D044F4804402E0284600F0E8FA17F447
:106E5000803F19D029684FF48030886017F4003FD4
:106E600003D0284600F0DEFA0EE017F4802F02D09F
:106E700044F4004408E017F4002F02D044F48034B6
:106E800002E0284600F0CDFA16F0080F07D01AF0FD
:106E9000100F04D044F4007429681020C86016F064
:106EA000040F4FF0080707D01AF0080F04D0286825
:106EB000C760284600F0CEF916F0020F07D0286808
:106EC000C06810F0030F02D0284600F0C5F916F094
:106ED000400F07D01BF0100F04D044F480642968E1
:106EE0001020086116F0200F07D01BF0080F04D007
:106EF00028680761284600F05BFA16F0100F07D0EB
:106F00002868006910F0030F02D0284600F051FAFB
:106F100016F4003F08D019F0100F05D02968102092
:106F20004860284600F046FA16F4803F07D019F072
:106F3000080F04D028684760284600F074FA16F459
:106F4000004F4AD019F0040F44D016F4807F04D0CB
:106F500018F0010F01D044F0010416F4007F04D0B2
:106F600018F0020F01D044F0020416F4806F04D030
:106F700018F0040F01D044F0040416F4006F29D077
:106F800018F0700F26D008F07000402815D006DCED
:106F9000102809D020280AD0302816D10AE050281D
:106FA0000ED0602811D10EE044F008040DE044F04A
:106FB00010040AE044F0200407E044F0400404E038
:106FC00044F0800401E044F480742868816921F071
:106FD00070018161296804204860002C05D0686A2E
:106FE000204368622846FFF731FEBDE8F09F70B588
:106FF0000446002C03D094F8200010B104E00120D6
:1070000070BD204600F0A8F82068016841F0010139
:10701000016000F0FFFD0546206840684FF005065E
:1070200010F0010F11D100F0F5FD401B0A2807D91F
:10703000606A40F40030606284F82060012070BD16
:107040002068406810F0010FEDD02068016821F041
:107050000201016000F0DEFD05462068406810F086
:10706000020F11D000F0D6FD401B0A2807D9606A34
:1070700040F40030606284F82060012070BD206818
:10708000406810F0020FEDD1207E01283FD020682B
:10709000016821F080010160607E01283DD02068F8
:1070A000016821F040010160A07E01283BD02068EA
:1070B000016821F020010160E07E012839D02068BC
:1070C000016841F010010160207F012837D020685D
:1070D000016821F008010160607F012835D0206837
:1070E000016821F004010160E168A0686269084359
:1070F0002169114308436168491E08432168C8613A
:1071000000206062012084F82000002070BD20680B
:10711000016841F080010160BEE72068016841F02C
:1071200040010160C0E72068016841F02001016072
:10713000C2E72068016821F010010160C4E72068FF
:10714000016841F008010160C6E72068016841F06C
:1071500004010160C8E70000F0B587B004461421BF
:107160006846FDF7EBF8364B3648DFF8D0E0196893
:10717000D4F800C0334A0325022609271030002422
:10718000491CF44522D11960012907D1016841F059
:1071900000710160006800F000700590106840F018
:1071A000080010601068CDE9005600F00800CDE935
:1071B000047069462448CDE9024500F0EFFB002247
:1071C0000521142000F0BCFD142033E0DFF87CE042
:1071D000F44531D1D0F800C04CF0806CC0F800C04C
:1071E000D0F800C001290CF0806CCDF814C01960F3
:1071F00007D1016841F000710160006800F0007083
:107200000590106840F002001060106802AB00F0BA
:10721000020005904FF44050CDE9000683E8B0002D
:1072200069460B4800F0BAFB00220521402000F01F
:1072300087FD402000F076FD07B0F0BD00640040FF
:107240001800002030380240000C02400068004066
:107250000004024070470000F0B5504A0168504DEC
:10726000961401248DB0914244D104AB06AA0021AA
:10727000FFF7EDFC4B48069900EB0110A0F500501C
:107280001038018801819DF811109DF8102001EB44
:10729000022101809DF813109DF8122001EB0221BC
:1072A00041809DF815109DF8142001EB022181808A
:1072B0009DF816108171C179A0F57F6029B9B0F8E9
:1072C000F01FA0F8F81F80F8F74FB0F8F01FB0F8E3
:1072D000F82F891AA94202DA01F5005103E0B14200
:1072E00001DDA1F50051D0F8FC2F1144C0F8FC1FBE
:1072F0000DB0F0BD2C4A9142FAD104AB06AA002190
:10730000FFF7A5FC274A069B803202EB0310A0F58D
:1073100000501038018801819DF811109DF81070FF
:1073200001EB072101809DF813109DF8127001EB0D
:10733000072141809DF815109DF8147001EB07217D
:1073400081809DF816108171C179A0F57F6029B9FF
:10735000B0F8F01FA0F8F81F80F8F74FB0F8F01F52
:10736000B0F8F87FC91BA94202DA01F5005103E029
:10737000B14201DDA1F50051D0F8FC5F2944C0F80D
:10738000FC1FA3F500700338B2D1D16A074800682A
:107390004160118D41800480AAE700000064004034
:1073A00000F0FFFFB0090020006800402800002026
:1073B00070477047704770B5044694F82000012864
:1073C00005D0606A40F400206062012070BD022098
:1073D00084F820002068016821F00101016000F0BC
:1073E00019FC05462068406810F0010F12D000F02B
:1073F00011FC401B0A2808D9606A40F40030606222
:10740000052084F82000012070BD2068406810F03D
:10741000010FECD10020606270BD7047704770476B
:1074200070477047704770472DE9F0410446A66DDC
:1074300000F0F0FB054694F835000027022806D03E
:107440008020606584F834700120BDE8F0812068F8
:10745000016821F0160101602068416921F0800176
:107460004161206C08B9A06C20B12068016821F04E
:10747000080101602068016821F0010101602068B5
:10748000006810F0010F12D000F0C4FB401B05286B
:1074900008D920206065032084F8350084F8347012
:1074A000BDE8F0812068006810F0010FECD194F87D
:1074B0005C003F2101FA00F0B060012084F8350043
:1074C00084F834700020BDE8F08190F8351002296E
:1074D00003D08021416501207047052180F83510D7
:1074E0000068016821F00101016000207047000080
:1074F0002DE9F84304464FF00008CDF800807648A7
:107500004FF416510068B0FBF1F7A56D2E6894F8A2
:107510005C00082101FA00F0304211D020680268B6
:1075200012F0040F0CD0026822F00402026094F8FA
:107530005C0001FA00F0A860606D40F00100606539
:1075400094F85C004FF0010909FA00F0304209D0CC
:107550002168496911F0800F04D0A860606D40F087
:107560000200606594F85C1004208840304209D025
:107570002168096811F0020F04D0A860606D40F026
:107580000400606594F85C1010208840304224D0DC
:107590002168096811F0080F1FD0A86020680168F1
:1075A00011F4802F0DD0006810F4002F04D0A16CCE
:1075B00099B12046884710E0216C71B12046884778
:1075C0000BE0016811F4807F03D1016821F008010C
:1075D0000160216C09B12046884794F85C10202096
:1075E0008840304251D02168096811F0100F4CD00A
:1075F000A86094F8350005280DD02068016811F4C2
:10760000802F32D0006810F4002F29D0E16B59B3DD
:107610002046884739E02068016821F016010160A2
:107620002068416921F080014161206C08B9A06C9B
:1076300020B12068016821F00801016094F85C0025
:107640003F2101FA00F0A86084F8359084F8348076
:10765000216D00293ED001B02046BDE8F043084727
:10766000616C09B1204688470FE0016811F4807F02
:1076700007D1016821F01001016084F8359084F889
:107680003480E16B09B120468847606D002821D025
:10769000606D10F0010F15D0052084F835002068CA
:1076A000016821F0010101600098401C0090B8427F
:1076B00004D82068006810F0010FF5D184F83590E7
:1076C00084F83480E16C002904D001B02046BDE884
:1076D000F0430847BDE8F883E40100202DE9F041BC
:1076E000044600F097FA0546DCB1022084F8350024
:1076F000002684F834602068016821F001010160EF
:107700002068006810F0010F13D000F083FA401BCE
:10771000052809D920206065032084F83500BDE8DC
:10772000F0810120BDE8F0812068006810F0010FB1
:10773000EBD121680868234A1040A3686268D4F836
:1077400010C01A43E36843EA0C031A4363691A43FF
:10775000A3691A43E3691A43236A1A431043626A0E
:10776000042A03D1236BE26A1A431043086020689D
:10777000406920F00701606A40EA010501270428FA
:107780000ED1A06A0543E06A50B12046FEF708FC1E
:1077900030B14020606584F835700120BDE8F0818B
:1077A000206845612046FEF7E1FB94F85C103F221B
:1077B00002FA01F18160666584F835700020BDE849
:1077C000F08100003F8010F070B5044600F022FA0E
:1077D0000546B4F1FF3F02D004480078044400F0AD
:1077E00019FA401BA042FAD370BD0000D801002056
:1077F0002DE9F04F0023DFF860E1DFF860914FF0F2
:10780000010A4FF00F080AFA03F601EA060CB44524
:107810007DD123F0030202F1804404F59834D4F8BA
:1078200008289D072F0F08FA07F505EA020B704597
:1078300001D100222DE0A0F18042B2F5013278D0D2
:10784000A0F18042B2F5023275D0A0F18042B2F5CB
:10785000033272D0A0F18042B2F504326FD0A0F1B1
:107860008042B2F505326CD0A0F18042B2F506320A
:1078700069D0A0F18042B2F5073266D0A0F1804213
:10788000B2F5083263D0A0F18042B2F5093260D07F
:107890000A22BA405A4519D1D9F8002022EA0C022E
:1078A000C9F800202E4F3A6822EA0C023A603F1DC8
:1078B0003A6822EA0C023A603F1D3A6822EA0C025A
:1078C0003A60D4F80828AA43C4F80828D0F800C0C1
:1078D0005C000322A2402CEA020CC0F800C04FEA70
:1078E000D30C00EB8C0CDCF820405D07ED0E08FAA1
:1078F00005F5AC43CCF82040D0F80CC02CEA020CC3
:10790000C0F80CC0D0F804C02CEA060C01E007E077
:107910000FE0C0F804C0D0F808C02CEA0202826070
:107920005B1C102BFFF46FAFBDE8F08F03E004E0A9
:1079300005E00122ADE70222ABE70322A9E704221A
:10794000A7E70522A5E70622A3E70722A1E7082269
:107950009FE709229DE7000000000240003C014033
:10796000043C0140B0F5004F07D0B0F5804F06D081
:10797000B0F5005F05D102F07FBB04F051BA02F010
:1079800075BB704710B504490A68024202D008600E
:10799000FFF7E8FF10BD0000143C01402DE9F84F4F
:1079A0000022DFF82C92DFF82CE2DFF82CA24FF057
:1079B000010B03274FF00F080BFA02FC0B6803EAD8
:1079C0000C0363457AD10C7904F00304012C01D037
:1079D000022C14D18568540007FA04F6B543CE682A
:1079E00006FA04F42C438460446824EA0C0C0C79F5
:1079F000C4F30014944044EA0C0CC0F804C0D1F85D
:107A000004C037EA0C0C0CD0C4684FEA420C07FAE9
:107A10000CF5AC438D6805FA0CFC4CEA040CC0F87C
:107A20000CC091F804C00CF0030CBCF1020F12D191
:107A30004FEAD20C00EB8C04256A4FEA427C4FEAF5
:107A4000DC6C08FA0CF6B5430E6906FA0CFC4CEA3D
:107A5000050CC4F820C004684FEA420C07FA0CF584
:107A6000AC430D7905F0030505FA0CFC4CEA040C57
:107A7000C0F800C0D1F804C01CF4403F1ED0D9F8B3
:107A800000C04CF4804CC9F800C0D9F800C00CF418
:107A9000804CCDF800C022F0030C0CF1804505F5B8
:107AA0009835D5F808C89407240F08FA04F62CEA8C
:107AB0000606704503D14FF0000C2FE067E0A0F1FF
:107AC000804CBCF5013C68D0A0F1804CBCF5023C78
:107AD00066D0A0F1804CBCF5033C64D0A0F1804C92
:107AE000BCF5043C62D0A0F1804CBCF5053C60D0F4
:107AF000A0F1804CBCF5063C5ED0A0F1804CBCF5FA
:107B0000073C5CD0A0F1804CBCF5083C5AD0A0F1F9
:107B1000804CBCF5093C58D04FF00A0C0CFA04FC20
:107B20004CEA060CC5F808C8DAF800C02CEA030CC9
:107B30004C6814F4803F01D04CEA030CCAF800C032
:107B4000264CD4F800C02CEA030C4D6815F4003F15
:107B500001D04CEA030CC4F800C0214CD4F800C09A
:107B60002CEA030C4D6815F4801F01D04CEA030C7D
:107B7000C4F800C01B4CD4F800C02CEA030C4D68BC
:107B800015F4001F01D04CEA030CC4F800C0521CCD
:107B9000102AFFF411AFBDE8F88F4FF0010CBDE7DC
:107BA0004FF0020CBAE74FF0030CB7E74FF0040CAC
:107BB000B4E74FF0050CB1E74FF0060CAEE74FF01D
:107BC000070CABE74FF0080CA8E74FF0090CA5E74E
:107BD0004438024000000240003C0140043C0140A7
:107BE000083C01400C3C01400069084201D00120E2
:107BF000704700207047426921EA0203114043EABE
:107C0000014181617047002A01D0816170470904F8
:107C1000816170470148806870470000D8010020EA
:107C2000024881680278114481607047D8010020C1
:107C300010B50B48016841F400710160016841F41E
:107C400080610160016841F480710160032000F0EF
:107C5000ABF8002000F006F800F03EF8002010BD60
:107C6000003C024010B5014688B000221C2000F004
:107C700067F81C2000F056F814480024016841F011
:107C800001010160006805A900F001000690684646
:107C900000F03CFA00F05EFA0D494000B0FBF1F153
:107CA0000C484FF08042491E026040F2E732C0E9C2
:107CB0000324C0E9011401F056FB10B1012008B003
:107CC00010BD044801F09CFBF9E700004038024079
:107CD00040420F0078050020114808B5016841F4C2
:107CE00080410160006800F4804000900C48001F53
:107CF000016841F0805101600068002200F080506E
:107D000000900F21901E00F01BF800220521012099
:107D100000F016F8BDE80840012000F003B80000AC
:107D20004438024000280ADB00F01F01012202FA59
:107D300001F14009800000F1E020C0F80011704717
:107D400010B4184B1B68C3F30223C3F1070CBCF13A
:107D5000040F01D94FF0040C1C1D072C01D2002385
:107D600000E0DB1E012404FA0CFCACF1010C0CEA6F
:107D70000101994004FA03F35B1E1A4011430028E5
:107D800006DB00F1E020090180F8001410BC704708
:107D900000F00F0000F1E020090180F8141D10BC74
:107DA000704700000CED00E000F00700064A116883
:107DB0004FF6FF03194041EA002040F0FD7040F00B
:107DC00080601060704700000CED00E0BFF34F8F43
:107DD00005480168054A01F4E06111430160BFF301
:107DE0004F8F00BFFDE700000CED00E00400FA0536
:107DF00070B50C4901200860FFF70CFF04460A4DDE
:107E0000686810F0080F0BD1FFF704FF001BB0F5F6
:107E10007A7F01D9032070BD686810F0080FF3D095
:107E2000002070BDA4000E4200700040F8B51B4851
:107E3000016841F080510160006800F080500090BE
:107E4000174F01263E64FFF7E5FE0546154C6068B6
:107E500010F4803F0BD1FFF7DDFE401BB0F57A7FB9
:107E600001D90320F8BD606810F4803FF3D07E6430
:107E7000FFF7D0FE0546606810F4003F0BD1FFF716
:107E8000C9FE401BB0F57A7F01D90320F8BD6068B8
:107E900010F4003FF3D00020F8BD0000403802404D
:107EA00000000E420070004010B422490A680368C6
:107EB00022F0E0021A430A601F490A6822F4803265
:107EC0000A600A1F136823F4803313600B1DD3F874
:107ED00000C02CF4803CC3F800C003F1040CDCF8B3
:107EE000004024F48034CCF80040446814F4803F0F
:107EF00003D0146844F480341460426812F4003FE4
:107F000003D00A6842F480320A60017911F0010F4F
:107F100003D0196841F480311960007910F0020F24
:107F200005D0DCF8000040F48030CCF8000010BC34
:107F30007047000000700040043C014081B00449DB
:107F40000120086203480068009001B070470000FB
:107F500000000E4200700040014901200861704796
:107F600000000E422DE91040FEF75AF80028FBD120
:107F700010BD000010B5054C206810F4803F04D0FF
:107F8000FFF7F0FF4FF48030206010BD143C01403B
:107F90002DE9F04704460D46002C13D0DFF854912C
:107FA000D9F80000EFB200F00F00A8420DD289F816
:107FB0000070D9F8000000F00F00A84205D00120A1
:107FC000BDE8F0870120BDE8F08720684A4E10F038
:107FD000020F14D010F0040F03D0306840F4E050CA
:107FE0003060207810F0080F03D0306840F4604013
:107FF00030603068A16820F0F000084330602078DD
:1080000010F0010F3ED060683C49012808D00228DA
:108010000DD003280BD0096811F0020F28D00AE018
:10802000096811F4003F06D10120BDE8F087096816
:1080300011F0007F19D0316821F00301084330604E
:10804000FFF7E8FD80463068616800F00C00B0EB97
:10805000810F17D041F2883AFFF7DCFDA0EB080052
:10806000504508D90320BDE8F0870120BDE8F0871E
:108070000120BDE8F0873068616800F00C00B0EBCB
:10808000810FE9D1D9F8000000F00F00A8420AD909
:1080900089F80070D9F8000000F00F00A84202D063
:1080A0000120BDE8F087207810F0040F05D030687B
:1080B000E16820F4E05008433060207810F0080FA9
:1080C00006D03068216920F4604040EAC100306089
:1080D00000F060F831680A4AC1F30311515CC840EE
:1080E0000849086008480068FFF7BCFD0020BDE8AB
:1080F000F0870000003C024008380240003802408F
:108100007E440408E4010020DC0100200F2202600C
:108110000B4A136803F003034360136803F0F00392
:108120008360136803F4E053C360126802F4604292
:10813000D20802610348006800F00F000860704731
:1081400008380240003C02400148006870470000C7
:10815000E401002000B5FFF7F7FF04490968044A6D
:10816000C1F38221515CC84000BD000008380240C4
:108170008E44040800B5FFF7E7FF04490968044A84
:10818000C1F34231515CC84000BD000008380240D4
:108190008E44040810B51748006810F00C0116480A
:1081A00016D0164B042912D0082911D1144C21687D
:1081B00001F03F02216811F4800F0AD02068C0F35B
:1081C0008810A0FB03010023FCF76EF809E01846B5
:1081D00010BD21680023C1F38811A1FB0001FCF749
:1081E00063F82168C1F30141491C4900B0FBF1F07B
:1081F00010BD0000083802400024F400001BB70046
:10820000043802402DE9F84F0446002C12D02078A3
:10821000FB4E10F0010FA6F1040563D0301D01687C
:1082200001F00C0104290CD0006800F00C000828B3
:1082300003D010E00120BDE8F88F306810F4800F03
:1082400009D0286810F4003F4CD06068002849D15C
:108250000120BDE8F88F6068B0F5803F14D0B0F51C
:10826000A02F16D0286820F480302860286820F4D9
:1082700080202860606810B3FFF7CCFC07462868B0
:1082800010F4003F0ED02DE0286840F480302860C4
:10829000F0E7286840F480202860286840F48030A7
:1082A0002860E7E7FFF7B6FCC01B642802D903206B
:1082B000BDE8F88F286810F4003FF3D012E0FFF714
:1082C000A9FC0746286810F4003F0BD0FFF7A2FC7A
:1082D000C01B642802D90320BDE8F88F286810F479
:1082E000003FF3D12078C74F10F0020F4FF0000984
:1082F00057D0C548016811F00C0F14D0006800F089
:108300000C00082803D1306810F4800F0BD0E0680F
:1083100080B301203860FFF77DFC8046286810F0AC
:10832000020F12D01EE0286810F0020F05D0E0689E
:10833000012802D00120BDE8F88F2868216920F0CB
:10834000F80040EAC10028602BE0FFF763FCA0EBD7
:108350000800022802D90320BDE8F88F286810F031
:10836000020FF2D02868216920F0F80040EAC1002D
:10837000286016E0FFE7C7F80090FFF74BFC804647
:10838000286810F0020F0CD0FFF744FCA0EB0800A7
:10839000022802D90320BDE8F88F286810F0020FE8
:1083A000F2D1207810F0080F35D09848DFF860A29D
:1083B0006169C1B101210160FFF72CFC8046DAF848
:1083C000000010F0020F26D1FFF724FCA0EB0800FC
:1083D000022802D90320BDE8F88FDAF8000010F077
:1083E000020FF1D017E0C0F80090FFF713FC8046B1
:1083F000DAF8000010F0020F0DD0FFF70BFCA0EB35
:108400000800022802D90320BDE8F88FDAF800003E
:1084100010F0020FF1D1207810F0040F71D04FF05E
:1084200000087C48006810F0805F0AD17948016834
:1084300041F080510160006800F0805000904FF0E2
:108440000108DFF8D4B1DBF8000010F4807F1BD105
:10845000DBF8000040F48070CBF80000FFF7DAFB97
:108460008246DBF8000010F4807F0DD1FFF7D2FBCD
:10847000A0EB0A00022802D90320BDE8F88FDBF840
:10848000000010F4807FF1D0A068DFF890B10128DF
:1084900018D005281DD0DBF8000020F00100CBF833
:1084A0000000DBF8000020F00400CBF80000A0681A
:1084B00040B3FFF7AFFB8246DBF8000010F0020F7D
:1084C00014D03EE0DBF8000040F00100CBF80000E3
:1084D000EDE7DBF8000040F00400CBF80000DBF82B
:1084E000000040F00100CBF80000E0E7FFF792FB4E
:1084F000A0EB0A0141F28830814204D90320BDE893
:10850000F88F26E005E0DBF8000010F0020FEDD058
:1085100017E0FFF77FFB8246DBF8000010F0020F48
:108520000FD0FFF777FBA0EB0A0141F288308142C0
:1085300002D90320BDE8F88FDBF8000010F0020F2D
:10854000EFD1B8F1010F04D13248016821F0805118
:108550000160A069F0B32C4909684FF0FF3801F0C1
:108560000C01082966D0022810D0C7F86090FFF7E8
:1085700051FB0446286810F0007F2BD0FFF74AFB20
:10858000001B022851D90320BDE8F88FC7F860907E
:10859000FFF740FB8146286810F0007F0CD0FFF702
:1085A00039FBA0EB0900022802D90320BDE8F88FAF
:1085B000286810F0007FF2D1216AE069A26A0843BE
:1085C000616A08EB5202890141EA0241084394F8CA
:1085D0002C1000E055E040EA016030600120386670
:1085E000FFF718FB0446286810F0007F49D1FFF719
:1085F00011FB001B022813D90320BDE8F88F0000EF
:10860000043802400000474208380240800E4742CA
:108610007438024040380240007000407038024018
:10862000286810F0007FE2D02BE0286810F0007F6F
:10863000A4D126E0012822D03068E26900F480014C
:1086400091421AD1226A00F03F01914215D147F6BA
:10865000C071626A0140B1EB821F0ED1A26A00F4C0
:10866000403108EB5202B1EB024F06D194F82C10C6
:1086700000F07060B0EB016F03D00120BDE7012076
:10868000BBE70020B9E700002DE9F0418AB00446BD
:108690000D460026032084F83400606C03281ED0A9
:1086A000B5F5805F08D0B5F5006F0AD085B1A06B35
:1086B00040F00060A06316E0A06B40F08050A06323
:1086C00011E0204603F090FCA16B0843A0630AE090
:1086D000204603F05AFCA16B0843A06303E0A06BA3
:1086E00040F08050A063A06B194F4FF0010828B1F3
:1086F0002068876384F83480012616E0606804905F
:10870000A0680590E0680690079560690890A069E8
:10871000099008990798099A01910292009020689F
:10872000069B059A049902F0C7FE4FF40071206879
:1087300002F02FFF28B121688F63A16B0843A0636B
:10874000012684F834800AB03046BDE8F08100008C
:10875000FF05400010B50446002C0DD0032084F81E
:108760003400204603F082FB204600F07BF9002015
:10877000A06384F8340010BD012010BD30B4426EF7
:10878000920F0A70426EC2F383624A70426EC2F365
:1087900001628A70426E120CCA70B0F86420120A2C
:1087A0000A7190F864204A71826E120DCA80826E3E
:1087B000C2F303420A72B0F86820C2F3C0324A72B0
:1087C000B0F86820C2F380328A72B0F86820C2F331
:1087D0004032CA72B0F86820C2F300320A73002532
:1087E0004D73426C4FF400744FF0010C002A0DD011
:1087F000012A3BD0026851499163816B41F080515D
:10880000816380F834C030BC01207047B0F8682024
:10881000C36E9205120D42EA93720A61C26EC2F3F0
:10882000C2620A75C26EC2F302624A75C26EC2F3B8
:1088300042528A75C26EC2F38242CA75C26EC2F3D8
:10884000C2320A760A69521C42650B7E03F00703A6
:108850009B1C9A4042650B7A03F00F030CFA03F35A
:1088600083655B0A5A43C26504660EE090F868208F
:10887000C36E9206920A42EA13420A610A69521CC6
:1088800092024265C26584650466B0F86C20C2F34A
:1088900080324A76B0F86C20C2F3C6128A7690F81D
:1088A0006C2002F07F02CA76026FD20F0A77026F45
:1088B000C2F341724A77026FC2F382628A77026F13
:1088C000C2F38352CA77026FC2F3405281F820206C
:1088D00081F82150026FC2F3004281F82220B0F8E3
:1088E0007020C2F3C03281F82320B0F87020C2F3A8
:1088F000803281F82420B0F87020C2F3403281F831
:108900002520B0F87020C2F3003281F82620B0F89C
:108910007020C2F3812281F82720B0F87020C2F3C2
:10892000012281F8282090F87000C0F3460081F8F9
:10893000290081F82AC030BC00207047FF054000A4
:10894000426C0A60826C4A60C26C8A60026DCA60C6
:10895000426D0A61826D4A61C26D8A61006EC861B2
:108960000020704738B50446002000906946204634
:1089700003F0F4FA10B1A16B0843A0630098C0F3B0
:10898000432038BD70B50446002C04D094F8340060
:10899000002510B105E0012070BD2577204600F0CC
:1089A0007FF8032084F83400204600F00BF808B16B
:1089B000012070BDA5632563012084F834000020E8
:1089C00070BD000070B58AB00446002529460495A4
:1089D00005910691079108917620099000910191E7
:1089E00002900B460A46206802F066FD10B10AB0FC
:1089F000012070BD194E3560206802F077FD012519
:108A00003560204603F036FA38B184F83450A16B53
:108A10000843A0630AB0012070BD204603F088F926
:108A200038B184F83450A16B0843A0630AB0012028
:108A300070BD4FF40071206802F0ABFD50B12268A8
:108A400007499163A16B0843A06384F834500AB0CE
:108A5000012070BD0AB0002070BD0000A08025423A
:108A6000FF05400010B50068094988420FD1094848
:108A7000016821F4006101604FF4F8510648FEF7E7
:108A8000B7FEBDE8104004210448FEF7B1BE10BD9A
:108A9000002C01404438024000080240000C024013
:108AA000F0B587B0044614216846FBF747FC1D4922
:108AB0002068884233D11C480024016841F40061D9
:108AC0000160006800F400600590174814380168E0
:108AD00041F004010160016801F0040105910168A1
:108AE00041F0080101600068022500F008000590CF
:108AF0004FF4F850CDE9000502AA03260C2782E8BE
:108B0000D00069460948FEF749FF0420CDE9000579
:108B100002AA694682E8D0000548FEF73FFF07B089
:108B2000F0BD0000002C0140443802400008024023
:108B3000000C02402DE9F04F87B004460D46164662
:108B40009946DDF84080FFF765F883465DB194F8FB
:108B5000340001280FD0A06B40F00050A06307B094
:108B60000120BDE8F08FA06B40F00060A06307B06B
:108B70000120BDE8F08F0020A063E26D06EB090143
:108B8000914207D9A06B40F00070A06307B00120AC
:108B9000BDE8F08F032184F834102168C862616C4D
:108BA000012900D076024FF0FF3100914FEA4921B0
:108BB00001919021029102270397002004904FF029
:108BC000010ACDF814A06946206802F059FCB9F1F9
:108BD000010F05D927633146206802F038FD05E012
:108BE000C4F830A03146206802F04AFD68B122681E
:108BF0006C499163A16B0843A06384F834A0002002
:108C0000206307B00120BDE8F08F019E2068416B12
:108C100040F22A30014229D12068406B10F4004F05
:108C200015D0A6B10027206802F068FC2870691CE6
:108C3000721E030A0B70491C030C0B70491C921E18
:108C4000000E08704D1C561E7F1C082FEBD3FEF73C
:108C5000E1FFA0EB0B00404524D2B8F1000F21D07A
:108C60002068416B40F22A300142D5D02068416B28
:108C700011F4807F25D0B9F1010F22D9616C03294D
:108C80001FD002F0A9FDE0B1226846499163A16BB3
:108C90000843A06384F834A00020206307B00120BB
:108CA000BDE8F08F21683F488863A06B40F000402A
:108CB000A06384F834A00020206307B00320BDE83F
:108CC000F08F2068416B11F0080F0DD0354981639A
:108CD000A06B40F00800A06384F834A0002020635B
:108CE00007B00120BDE8F08F416B11F0020F0DD0ED
:108CF0002C498163A06B40F00200A06384F834A08B
:108D00000020206307B00120BDE8F08F416B11F017
:108D1000200F26D023498163A06B40F02000A06380
:108D200084F834A00020206307B00120BDE8F08F54
:108D300002F0E4FB2870691C721E030A0B70491CC8
:108D4000030C0B70491C921E000E08704D1C561E21
:108D5000FEF760FFA0EB0B00404513D2B8F1000F07
:108D600010D02068416B11F4001F01D0002EDFD11C
:108D7000216840F23A50886384F834A007B000209C
:108D8000BDE8F08F216807488863A06B40F0004081
:108D9000A06384F834A00020206307B00120BDE860
:108DA000F08F0000FF0540002DE9F04F8BB0044626
:108DB0000E4615469946DDF85080FEF72BFF0290CF
:108DC0005EB194F8340001280FD0A06B40F0005041
:108DD000A0630BB00120BDE8F08FA06B40F00060F5
:108DE000A0630BB00120BDE8F08F4FF0000BC4F87A
:108DF00038B0E16D05EB0900884207D9A06B40F05F
:108E00000070A0630BB00120BDE8F08F032084F850
:108E100034002068C0F82CB0606C012800D06D02CE
:108E20004FF0FF3004904FEA4920059090200690C3
:108E3000CDF81CB0CDF820B04FF0010ACDF824A039
:108E400004A9206802F01CFBB9F1010F07D920200A
:108E500020632946206802F0D9FC039006E0102028
:108E600020632946206802F0EAFC0390039870B161
:108E7000216859488863A16B03980843A06384F86C
:108E800034A0C4F830B00BB00120BDE8F08F059FCE
:108E90002068416B40F21A30014231D12068406BAA
:108EA00010F4804F1DD0E7B1002531780191701C7E
:108EB0007A1E037841EA03210191401C037841EABC
:108EC00003410191401C921E037841EA0361019124
:108ED000461C571E01A9206802F023FB6D1C082DBB
:108EE000E3D3FEF797FE0299401A404524D2B8F129
:108EF000000F21D02068416B40F21A300142CDD0E2
:108F00002068416B11F4807F25D0B9F1010F22D97F
:108F1000616C03291FD002F05FFCE0B122682E498A
:108F20009163A16B0843A06384F834A0C4F830B007
:108F30000BB00120BDE8F08F216827488863A16B42
:108F400003980843A06384F834A0C4F830B00BB091
:108F50000320BDE8F08F2068416B11F0080F0DD0A1
:108F60001D498163A06B40F00800A06384F834A021
:108F7000C4F830B00BB00120BDE8F08F416B11F0A8
:108F8000020F0DD014498163A06B40F00200A06372
:108F900084F834A0C4F830B00BB00120BDE8F08FE5
:108FA000416B11F0100F0DD00B498163A06B40F0A5
:108FB0001000A06384F834A0C4F830B00BB00120D6
:108FC000BDE8F08F40F23A51816384F834A00BB0D1
:108FD0000020BDE8F08F0000FF05400070B504469A
:108FE000002C09D0606A002540B125616561A56249
:108FF00094F8510040B10CE0012070BD6068B0F5FC
:10900000827FF4D0E561F2E784F85050204600F00A
:1090100045F8022084F851002068016821F04001E1
:109020000160A088218900F4827001F404410843A2
:10903000A18901F400610843217C01F00201084389
:10904000217D01F001010843218B01F400710843E7
:10905000217F01F03801084394F8201001F08001CD
:109060000843218D01F40051084321680860A1697B
:10907000042000EA114094F8241001F0100101438B
:10908000206841602068C16921F40061C1616565A3
:10909000012084F85100002070BD0000F0B587B0B9
:1090A000044614216846FBF749F91C4920688842A8
:1090B00032D11B480024016841F4805101600068EE
:1090C00000F48050059016481438016841F0020100
:1090D0000160016801F002010591016841F00101A0
:1090E00001600068022500F0010005901820CDE91C
:1090F000000502AA0326052782E8D0006946094830
:10910000FEF74CFC8020CDE9000502AA694682E802
:10911000D0000548FEF742FC07B0F0BD003001402A
:109120004438024000040240000002402DE9F84F9C
:1091300004468B4692461D46002694F850000128AE
:109140000DD04FF0010984F85090FEF763FD0746FB
:1091500094F85100B046012804D00226ADE0022068
:10916000BDE8F88FBBF1000F1CD05FEA0A0019D0F0
:10917000032084F85100C4F85480C4F830B0A4F837
:1091800034A0A4F836A0C4F83880A4F83C80A4F831
:109190003E80C4F84480C4F84080A068B0F5004F19
:1091A00002D00BE0012688E02068016821F0400130
:1091B00001602068016841F4804101602068016815
:1091C00011F0400F03D1016841F040010160E068F7
:1091D000B0F5006F05D0606888B3BAF1010F31D0E7
:1091E0003AE0606810B1BAF1010F09D1206B216833
:1091F0000088C860206B801C2063E08E401EE086E3
:10920000E08E002845D02068816811F0020F09D057
:10921000216B0988C160206B801C2063E08E401E9A
:10922000E08608E0FEF7F6FCC01BA84202D3B5F1C9
:10923000FF3F05D125B1E08E0028E4D129E001E00F
:1092400003263AE0206B216800780873206B401CED
:109250002063E08E401EE086E08ED0B120688168F9
:1092600011F0020F09D0216B09780173206B401CAB
:109270002063E08E401EE08608E0FEF7CBFCC01BBA
:10928000A84202D3B5F1FF3F0ED16DB1E08E0028A8
:10929000E4D13A462946204602F0EEFE08B12020ED
:1092A0006065A06810B105E0032606E02068C1688B
:1092B00080680090606D00B1012684F8519084F8B8
:1092C00050803046BDE8F88F7047704730B490F852
:1092D0003C20012A44D0012480F83C40022280F83E
:1092E0003D200268D2F804C093682CF0700C0D6821
:1092F00045EA0C0CC2F804C00268A2F1804CBCF52F
:10930000803C20D0B2F1804F1DD0A2F1804CBCF542
:10931000806C18D0A2F1804CBCF5006C13D0A2F187
:10932000804CBCF5406C0ED0A2F1804CBCF5823C68
:1093300009D0A2F1804CBCF5A03C04D0A2F1804C35
:10934000BCF5C05C04D123F08003496819439160E7
:1093500080F83D40002180F83C1030BC0020704770
:1093600030BC0220704710B50446002C03D094F89E
:109370003D0010B107E0012010BD002084F83C0042
:10938000204600F01FF8022084F83D00211D2068CF
:1093900003F0DEFD012084F8460084F83E0084F8E6
:1093A0003F0084F8400084F8410084F8420084F8CB
:1093B000430084F8440084F8450084F83D00002010
:1093C00010BD000008B500680B49884212D10B4857
:1093D000016841F0010101600068002200F0010015
:1093E000009005211920FEF7ABFCBDE808401920CC
:1093F000FEF798BC08BD0000000001404438024060
:1094000090F83D10012901D001207047022180F819
:109410003D100168CA6842F00102CA600068A0F10C
:109420008041B1F5803126D0B0F1804F23D0A0F13A
:109430008041B1F580611ED0A0F18041B1F500619D
:1094400019D0A0F18041B1F5406114D0A0F1804164
:10945000B1F582310FD0A0F18041B1F5A0310AD031
:10946000A0F18041B1F5C05105D0016841F0010182
:10947000016000207047816801F007010629F8D0DB
:10948000016841F001010160F3E70168CA6822F058
:109490000102CA6001680A6A41F211131A4207D137
:1094A0000A6A9B101A4203D10A6822F001020A607C
:1094B000012180F83D100020704770B5044600255A
:1094C00094F83C00012818D0012684F83C60022062
:1094D00084F83D002068826822F0770222F47F42FF
:1094E00082600868502839D00EDC202854D006DC71
:1094F000002851D0102811D14EE0022070BD302834
:109500004AD040280AD13DE0602831D070280DD0E3
:10951000B0F5805F03D0B0F5005F13D0012584F86B
:109520003D60002084F83C00284670BDCB684A6846
:109530008968206803F072FD2068816841F0770136
:109540008160ECE7CB684A688968206803F066FDB3
:109550002068816841F480418160E0E7CA68496819
:10956000206803F06EFD5021206803F062FDD6E70D
:10957000CA684968206803F077FD6021206803F01D
:1095800058FDCCE7CA684968206803F05AFD4021BD
:10959000206803F04EFDC2E722680146104603F042
:1095A00048FDBCE7704770B50446206801694FF07C
:1095B000000511F0020F17D0C16811F0020F13D08F
:1095C000E91E0161012020772068806910F0030FF7
:1095D00003D02046FFF7E6FF05E0204600F09DF8A7
:1095E000204600F09BF825772068016911F0040FF0
:1095F00018D0C16811F0040F14D06FF0040101619C
:10960000022020772068806910F4407F03D0204634
:10961000FFF7C8FF05E0204600F07FF8204600F085
:109620007DF825772068016911F0080F18D0C1680E
:1096300011F0080F14D06FF00801016104202077A9
:109640002068C06910F0030F03D02046FFF7AAFF7F
:1096500005E0204600F061F8204600F05FF825772D
:109660002068016911F0100F18D0C16811F0100FB7
:1096700014D06FF010010161082020772068C069C4
:1096800010F4407F03D02046FFF78CFF05E0204612
:1096900000F043F8204600F041F825772068016982
:1096A00011F0010F09D0C16811F0010F05D06FF062
:1096B00001010161204600F032F82068016911F0D3
:1096C000800F09D0C16811F0800F05D06FF08001C4
:1096D00001612046FFF7F8FD2068016911F0400F95
:1096E00009D0C16811F0400F05D06FF04001016151
:1096F000204600F01BF82068016911F0200F0BD004
:10970000C16811F0200F07D06FF0200101612046E1
:10971000BDE87040FFF7D9BD70BD70477047006865
:10972000B0F1804F01D1FEF77BBA704770477047A8
:1097300070470000F8B5044622681068D168536984
:1097400000F00F0CBCF1000F0AD110F0200F07D071
:1097500011F0200F04D02046BDE8F84003F02CBDE6
:109760000025BCF1000F75D003F0010C01F49076D8
:109770005CEA06066ED010F0010F06D011F4807F6F
:1097800003D0226C42F00102226410F0040F06D0D4
:1097900013F0010F03D0226C42F00202226410F099
:1097A000020F06D013F0010F03D0226C42F0040226
:1097B000226410F0080F08D001F0200252EA0C02D7
:1097C00003D0226C42F008022264226C002A35D0B9
:1097D00010F0200F05D011F0200F02D0204603F02A
:1097E000EBFC20684069C0F38010216C11F0080F79
:1097F00000D148B3204603F0ABFC2068406910F06C
:10980000400F1CD02068143050E8001F21F04001A8
:1098100040E80012002AF5D1A06B60B15C490165F7
:10982000A06BFDF752FE002808D0A06B016D01B0BF
:10983000BDE8F04008472046FFF77AFFF8BD204614
:10984000FFF776FFF8BD05E0FFE72046FFF770FF62
:109850002564F8BD236B012B7ED110F0100F7BD057
:1098600011F0100F7ED010685068009050694FF0D2
:10987000200310F0400F43D0A16B0868406880B20D
:109880000028E6D0A28D8242E3D9E085C869B0F510
:10989000807F2DD020680C3050E8001F21F48071AB
:1098A00040E80012002AF5D12068143050E8001F6B
:1098B00021F0010140E80012002AF5D1206814309F
:1098C00050E8001F21F0400140E80012002AF5D1C5
:1098D00084F83E30256320680C3050E8001F21F0EA
:1098E000100140E80012002AF5D1A06BFDF79CFDA5
:1098F000A08DE18D401A81B22046FFF718FFF8BD18
:10990000A08DE18D401A81B2E08D0028F7D00029AA
:10991000F5D020680C3050E8002F22F4907240E817
:10992000002CBCF1000FF4D12068143050E8002F57
:1099300022F0010240E8002CBCF1000FF4D184F8C1
:109940003E30256320680C3050E8002F22F01002D2
:1099500040E80023002B00E004E0F3D12046FFF7AD
:10996000E6FEF8BD10F0800F07D011F0800F04D094
:109970002046BDE8F84003F001BD10F0400FF0D0E4
:1099800011F0400FEDD02046BDE8F84003F007BCD1
:1099900041D1000870B50446002C04D094F83D0075
:1099A000002510B106E0012070BD84F83C5020462F
:1099B00000F022F8242084F83D002068C16821F4DA
:1099C0000051C160204603F05BFC2068016921F46E
:1099D000904101612068416921F02A0141612068BC
:1099E000C16841F40051C1602564202084F83D0025
:1099F00084F83E00002070BDF0B587B00646142103
:109A00006846FAF79BFC58493568002457480322FA
:109A100002234FF0080C8D422BD1544910310C68B1
:109A200044F000440C60096801F0004105910168B0
:109A300041F010010160006802AC00F010000590D8
:109A40000120CDE9002384E8051069464848FDF768
:109A5000A5FF002205215320FEF772F95320FEF7DF
:109A600061F944480068C16841F02001C16007B055
:109A7000F0BD3E49DFF800E114310F15754536D1D0
:109A80000D6845F010050D60096801F010010591A1
:109A9000016841F0020101600068694600F00200BF
:109AA0000590C0208DE819000720CDE90320334838
:109AB000FDF774FF2F4D3248CC3528607804C5E996
:109AC0000104C5E903476C61AC61EC612C62284676
:109AD0006C62FDF703FE08B1FCF767FFB563002277
