:020000040800F2
:10000000A85200204D0200086B150008A10E000840
:100010006915000843040008F117000800000000FB
:100020000000000000000000000000004116000871
:10003000DD060008000000006D150008AD16000880
:1000400067020008670200086702000867020008EC
:1000500067020008670200086702000867020008DC
:1000600067020008670200086702000867020008CC
:1000700067020008670200086702000867020008BC
:1000800067020008670200086702000867020008AC
:10009000670200086702000867020008670200089C
:1000A000670200086702000867020008670200088C
:1000B000670200086702000867020008670200087C
:1000C000670200086702000867020008670200086C
:1000D000670200086702000867020008670200085C
:1000E000670200086702000867020008670200084C
:1000F000670200086702000867020008670200083C
:10010000670200086702000867020008670200082B
:10011000670200086702000867020008670200081B
:10012000670200086702000867020008670200080B
:1001300067020008670200086702000867020008FB
:1001400067020008670200086702000867020008EB
:1001500067020008670200086702000867020008DB
:1001600067020008670200086702000867020008CB
:10017000670200086702000867020008000000002C
:10018000670200086702000867020008ED17000810
:10019000670200086702000867020008670200089B
:1001A00000000000000000006702000800F002F8F4
:1001B00000F03CF80AA090E8000C82448344AAF1C5
:1001C0000107DA4501D100F031F8AFF2090EBAE8C3
:1001D0000F0013F0010F18BFFB1A43F0010318477B
:1001E00088160000A8160000103A24BF78C878C10D
:1001F000FAD8520724BF30C830C144BF04680C602D
:10020000704700000023002400250026103A28BF74
:1002100078C1FBD8520728BF30C148BF0B60704778
:100220001FB501F00FFB1FBD10B510BD00F0CFF8DA
:100230001146FFF7F5FF01F0EDFA00F0EDF803B419
:10024000FFF7F2FF03BC00F0F5F800000948804713
:1002500009480047FEE7FEE7FEE7FEE7FEE7FEE7A8
:10026000FEE7FEE7FEE7FEE704480549054A064BC0
:10027000704700008D170008AD010008A80000209D
:10028000A8520020A8020020A802002053EA020C75
:1002900000F069802DE9F04B4FF00006002B1FBFE6
:1002A000B3FA83F503FA05F424FA05F65E4012BFAB
:1002B0001643B2FA82F502FA05F4C5F120051EBF15
:1002C00022FA05FC44EA0C04203556EA044C4FEAB5
:1002D000144418BF641C4FF000084FF0000990420E
:1002E00071EB030C39D3002919BFB1FA81F701FA78
:1002F00007F6B0FA80F700FA07F6C7F120071EBF2D
:1003000020FA07FC46EA0C062037B6FBF4FCA7EB04
:100310000507103F07F01F0BCBF120060CFA0BFB73
:100320002CFA06F644BFB3460026202FA4BF5E4633
:100330004FF0000B5BEA060C08BF4FF0010B19EB06
:100340000B09ABFB027C48EB0608C01B06FB02CC8A
:100350000BFB03CC71EB0C01C1E70B460246414697
:100360004846BDE8F08B13B54FF000004FF0000198
:10037000AFF30080BDE81C4070474FF0000200B5AD
:10038000134694469646203922BFA0E80C50A0E8B8
:100390000C50B1F12001BFF4F7AF090728BFA0E866
:1003A0000C5048BF0CC05DF804EB890028BF40F832
:1003B000042B08BF704748BF20F8022B11F0804F74
:1003C00018BF00F8012B704770477047704775469B
:1003D00000F02CF8AE4605006946534620F00700B1
:1003E000854618B020B5FFF73FFFBDE820404FF02D
:1003F00000064FF000074FF000084FF0000B21F00F
:100400000701AC46ACE8C009ACE8C009ACE8C009DB
:10041000ACE8C0098D46704710B50446AFF30080C4
:100420002046BDE81040FFF70ABF000000487047B3
:100430004400002001491820ABBEFEE72600020060
:100440007047FEE70021018041808160C16041600A
:1004500070470023426043808260C2600180704721
:1004600010B5418871B1816811F8012B8160438812
:100470005B1E4380048843681C448C4200D1836027
:10048000104610BD002010BD30B5C2681170C268A2
:10049000521CC260438801888B4208D183685B1C70
:1004A0008360446865189D4204D1846002E04388FB
:1004B0005B1C438043681944914200D1C36030BD46
:1004C000034948600868C0F3C0100028FAD070479C
:1004D000007C00402DE9F05FADF5864D4FF0000A3D
:1004E0004FF4804544F214024FF0030957466A4422
:1004F00069117648FFF7ADFF754800BF50E8001F4F
:1005000041F0200140E80012002AF7D1462000F017
:1005100017FA6E48418871B383466C48FFF7A0FF15
:10052000032804D0584641880029FCD0F5E7032071
:10053000FFF7C6FF2A0E1046FFF7C2FF280CFFF791
:10054000BFFF280AFFF7BCFFE8B2FFF7B9FF4FEA89
:100550001920FFF7B5FF4846FFF7B2FF02EB154041
:1005600000EB1520411901EB192101EB0900C0B284
:10057000FFF7A6FF07E00EE0BBF8020018B15348F2
:10058000FFF76EFF0646042E1CD0052E16D0102E47
:10059000F2D100F05FFC4E4850E8001F21F020012E
:1005A00040E80012002AF7D1252000F00FFC474850
:1005B000FFF748FF0DF5864DBDE8F09FBAF1000F3B
:1005C00045D07FE00026D946B9F802000028FBD0CC
:1005D0003E48FFF745FF3918CFB2C6F10301C90005
:1005E00088402043761C0446042EEDDB80464846B6
:1005F0004E4641880029FBD03448FFF731FF814641
:1006000007EB0900C7B200240DF1140A7088002816
:10061000FCD02E48FFF724FF04EB09223918641C94
:10062000CFB20AF80200FF2CF0DD70880028FCD061
:100630002648FFF715FF874201D1062000E007207A
:10064000FFF73EFF4FF0000A544657463AE0214973
:1006500008EB0100B0F5FE1F36D200F019FA29466A
:10066000404600F03CF890B100200090404600F079
:10067000E9FF029001200390022017490490F12025
:10068000086044F214216944684600F06BF90026C2
:100690000DF114094CF2503A504600F029F90023AC
:1006A00019F8062008EB0601184600F0B3F9761C8D
:1006B000AE42F1D300F0A4F94FF0010A5FF0090057
:1006C000FFF7FEFE002660E71120F9E73400002066
:1006D0000C7C004000C0FFF70C3C02407047002239
:1006E00005E0835CFF2B01D001207047521C8A4239
:1006F000F7D3002070470000002229B101291DD046
:1007000002291ED04FF440720B2800D9001D0E495B
:100710000B6823F440730B600B6813430B600A688B
:1007200022F0F8020A600A68022303EBC0000243C9
:100730000A60086840F48030086070474FF48072A7
:10074000E2E74FF40072DFE7103C02401348016813
:1007500089050FD5016821F400710160016841F439
:1007600000610160016821F400610160016841F4E9
:1007700000710160016849050FD5016821F48061AD
:100780000160016841F480510160016821F48051E9
:100790000160016841F4806101607047003C0240E3
:1007A0000E4A136823F44073136003290DD0012906
:1007B00011680FD041F40041116011684FF480338B
:1007C00043EA0020014311607047116848F20403B6
:1007D0001943F1E741F00401EEE70000103C02404C
:1007E000064A136823F44073136013681360136898
:1007F00043F001031360017070470000103C024099
:10080000094910B50C6824F440740C600C6844F479
:1008100040740C600C6844F001040C600260BFF38B
:100820006F8F436010BD0000103C0240074A136800
:1008300023F440731360136843F4807313601368E8
:1008400043F001031360018070470000103C024038
:10085000074A136823F440731360136843F400736A
:100860001360136843F001031360016070470000D8
:10087000103C02401C490868C2061C4805D5C269E4
:1008800042F01002C26110220A600A68920605D581
:10089000C26942F00802C26120220A600A68520658
:1008A00005D5C26942F00402C26140220A600A68AA
:1008B000120605D5C26942F00202C26180220A60B6
:1008C0000A68D20506D5C26942F00102C2614FF43E
:1008D00080720A600A68920705D5C26942F0200258
:1008E000C2610220086070470C3C024014000020E6
:1008F00070B5114904460020C86100F007FA0646A9
:100900000E4D09E0601C07D024B100F0FFF9801BF8
:10091000A04201D9032070BD2868C003F2D4286822
:10092000C00701D001202860286810F4F970F2D0C7
:10093000FFF7A0FF012070BD140000200C3C024016
:1009400070B5044600F0E2F90546601C02D0044888
:100950000078044400F0DAF9401BA042FAD370BDDD
:10096000000000202DE9F047044623480F46017E91
:1009700001290AD00121804601764CF250394846BF
:10098000FFF7B6FF020003D030E00220BDE8F08799
:100990004FF0FF3038602068184D012801D0A6685C
:1009A0001DE0207C6168FFF7FBFE4846FFF7A0FFD3
:1009B0000246286848F204018843286014E0217C3C
:1009C0003046FFF799FE4846FFF792FF020028687D
:1009D00020F0FA00286001D03E6005E0761CD4E9E2
:1009E00002100844B042EAD8FFF7B0FE002188F8B0
:1009F00018101046CAE7000014000020103C024006
:100A00000348016841F00041016000207047000088
:100A1000103C02402DE9F0471B4E05461446307E3F
:100A20001F468946012808D0012030764CF2503804
:100A30004046FFF75DFF18B114E00220BDE8F087E3
:100A40009DB1012D16D0022D19D022463B464846B5
:100A5000FFF7D6FE4046FFF74BFF0C490A6822F02D
:100A600001020A6000213176E8E7E1B24846FFF76B
:100A7000B7FEEFE7A1B24846FFF7D8FEEAE7214606
:100A80004846FFF7E5FEE5E714000020103C024071
:100A9000074900200A68002A09DA054A054B0C3A82
:100AA0001360054B13600968002900DA01207047C4
:100AB000103C024023016745AB89EFCD2DE9F84F8B
:100AC000DFF8F8A10022012403254FF00F090AF1F5
:100AD000040BAAF1040E00BF0B6804FA02F63340BF
:100AE000B34270D10F7907F00307012F01D0022F15
:100AF00016D187684FEA420805FA08FC27EA0C0776
:100B0000D1F80CC00CFA08FC4CEA070CC0F808C07D
:100B10004768B7430E79C6F3001696403E434660D9
:100B20000E79F643B6070AD0C7684FEA420C05FAB9
:100B30000CF6B7438E6806FA0CF63E43C6600E7993
:100B400006F00306022E10D1D60800EB8608D8F86E
:100B5000206057074FEAD76C09FA0CF7BE430F69BC
:100B600007FA0CF73743C8F8207006684FEA420CC2
:100B700005FA0CF7BE430F7907F0030707FA0CF7E5
:100B8000374307604E6816F4403F1CD04C4E376820
:100B900047F480473760366822F0030706F4804642
:100BA0000096484E07EB060CDCF8086897073F0FE5
:100BB00009FA07F826EA0806DFF80C81404503D158
:100BC0004FF0000841E072E0DFF80081404502D1BB
:100BD0004FF0010839E0DFF8F880404502D14FF0CE
:100BE000020832E0DFF8EC80404502D14FF0030804
:100BF0002BE0DFF8E480404502D14FF0040824E008
:100C0000DFF8D880404502D14FF005081DE0DFF83D
:100C1000D080404502D14FF0060816E0DFF8C480CE
:100C2000404502D14FF007080FE0DFF8BC80404597
:100C300002D14FF0080808E0DFF8B080404502D14B
:100C40004FF0090801E04FF00A0808FA07F848EAEF
:100C50000608CCF80888DAF800605746D1F804C0D6
:100C60009E435FEACC2C00D51E433E60DBF800605B
:100C70005F46D1F804C09E435FEA8C2C00D51E432A
:100C80003E60DEF800607746D1F804C09E435FEA1C
:100C90008C3C00D51E433E60084F083F3E68D1F8AB
:100CA00004C09E435FEACC3C00D51E433E60521C0C
:100CB000102AFFF411AFBDE8F88F0000083C014096
:100CC000443802400030014000000240000402406D
:100CD00000080240000C02400010024000140240D4
:100CE00000180240001C0240002002400024024084
:100CF000426921EA02030A4043EA024181617047E6
:100D00000AB1816170470904FBE70000014880686F
:100D100070470000000000200248816802781144FA
:100D200081607047000000200B4810B5016841F455
:100D300000710160016841F480610160016841F463
:100D400080710160032000F073F80F2000F006F8B6
:100D500000F024F8002010BD003C024070B50D4D9D
:100D600004464FF47A712878B1FBF0F00A4909681B
:100D7000B1FBF0F000F080F848B9102C07D2002247
:100D80002146501E00F034F800206C6070BD012038
:100D900070BD0000000000200C0000200A4808B5CB
:100DA000016841F480410160006800F480400090D7
:100DB0000548001F016841F080510160006800F0A3
:100DC0008050009008BD00004438024000280DDB30
:100DD00000F01F02012191404009800000F1E02055
:100DE000C0F88011BFF34F8FBFF36F8F70470000C3
:100DF000F0B40E4B1B680C46C3F30223C3F1070586
:100E0000042D00D90425191D072901D2002300E073
:100E1000DB1E012606FA05F1491E214099409E403D
:100E2000761E16403143F0BC00F0E3BC0CED00E050
:100E3000064900F0070208684FF6FF03184040EA31
:100E40000220034A10430860704700000CED00E0E8
:100E50000000FA05BFF34F8F05480168054A01F409
:100E6000E06111430160BFF34F8F00BFFDE7000059
:100E70000CED00E00400FA0510B5401EB0F1807FD3
:100E800001D3012010BD4FF0E02460610F216017F5
:100E900000F0AFFC0020A06107202061002010BD01
:100EA000FEE7000010B5074C2068800608D5201D1D
:100EB0000068C1B20448FFF7E7FA6FF02000206035
:100EC00010BD0000007C00403400002002490A6888
:100ED00002430A60704700001038024002490A6865
:100EE00082430A60704700001038024002490A68D5
:100EF00002430A60704700002038024002490A6835
:100F000082430A60704700002038024070B52C49C7
:100F10000024884204D10120FFF7D8FF012049E0D6
:100F20002849884204D10220FFF7D0FF022041E087
:100F30002549884204D10420FFF7C8FF042039E086
:100F40002249884204D10820FFF7C0FF082031E081
:100F50001F49884204D11020FFF7B8FF102029E074
:100F60001C49884204D12020FFF7B0FF202021E057
:100F70001949884204D14020FFF7A8FF402019E01A
:100F80001649884204D18020FFF7A0FF802011E09D
:100F90001349884201D1851508E01249884201D1E0
:100FA000451503E01049884207D105152846FFF78B
:100FB0008DFF2846FFF792FF00E00124204670BD18
:100FC000000002400004024000080240000C024001
:100FD000001002400014024000180240001C0240B1
:100FE000002002400024024000280240F0B50A68B8
:100FF0000F2692FAA2F2B2FA82F303248AE00127C2
:101000009F4015EA07027DD04D68012D01D0022DC9
:101010001BD18D68876892FAA2FCBCFA8CFC4FEA5F
:101020004C0C04FA0CFC27EA0C0792FAA2FCBCFA5E
:101030008CFC4FEA4C0C05FA0CF52F438760CD6809
:101040004768554397432F4347600F69D0F80CC05A
:1010500092FAA2F5B5FA85F54FEA450E04FA0EF5B7
:101060002CEA050C92FAA2F5B5FA85F56D00AF40B1
:101070004CEA070CC0F80CC04D68022D33D192FA2F
:10108000A2F5B5FA85F5082D15D2D1F814C0056A78
:1010900092FAA2F7B7FA87F7BF0006FA07F7BD433F
:1010A00092FAA2F7B7FA87F7BF000CFA07FC45EAF5
:1010B0000C05056217E0D1F814E0476A150A95FAA5
:1010C000A5FCBCFA8CFC4FEA8C0C06FA0CFC95FAD9
:1010D000A5F5B5FA85F5AD0027EA0C070EFA05FE71
:1010E00047EA0E0747624D68076892FAA2FCBCFA0D
:1010F0008CFC4FEA4C0C04FA0CFE27EA0E0792FA1D
:10110000A2F200E005E0B2FA82F2520095402F43CD
:1011100007605B1C0A681546DA407FF470AF002058
:10112000F0BD0000294808B5016841F001010160E7
:101130000168C1F340010029FAD0244A0021083295
:1011400011600168224A114021F0805121F0806134
:1011500000910160016821F0F80141F08001016017
:1011600000F04AF80028FBD118491A48091D086008
:1011700018481649103884310860091D0860134862
:101180000C30016821F4F8510160016821F400512C
:101190000160016821F480410160016841F41F0190
:1011A0000160016841F400110160016841F48001AF
:1011B000016006487430016821F001010160016896
:1011C00041F080710160002008BD0000003802403D
:1011D000FFFFF2FE1030002410B5044600F0F2F9D3
:1011E000206000F0C5F9606000F0D0F9A060606890
:1011F00000F0DAF9E06010BD02480068C0F340601A
:101200007047000000380240014908607047000044
:101210000C00002070B5224A00242249904207D1D8
:10122000086840F010000860086820F0100015E021
:101230001D4A904202D14FF4003527E01B4A9042EC
:1012400002D14FF4802521E0194A904208D1086864
:1012500040F020000860086820F0200008601DE0D1
:101260001449884202D14FF400250FE01249884208
:1012700002D14FF4801509E01049884202D14FF0A5
:10128000804503E00E49884207D145052846FFF70F
:101290002DFE2846FFF732FE00E00124204670BDF7
:1012A0000010014024380240004400400048004043
:1012B00000140140004C0040005000400078004005
:1012C000007C00407FB50446C0680D460126C0F38F
:1012D0004030E8BBE9686868AA6908432969114396
:1012E0000843E16849F20C6291430843E060A86852
:1012F000216921F44051014321616869616921F448
:101300004071014361616846FFF766FF13488442FC
:1013100008D01348844213D01248844210D0124897
:10132000844201D103990CE01048844208D010484F
:10133000844205D00F48844202D00F4884420AD12B
:10134000029929B12B681BB100262046AA6900E04A
:1013500001E000F013F804B0304670BD0010014009
:10136000004400400048004000140140004C004090
:101370000050004000780040007C00402DE9F04122
:1013800006461920A1FB00011F46002364243225D4
:10139000B2F5004F27D0BB0FBA00FEF777FF01462A
:1013A000B0FBF4F06FF01802504301EB800005EB46
:1013B0000010B0FBF4F000F0F002B1FBF4F002EB2F
:1013C0000012B1FBF4F06FF01803584301EB8000FA
:1013D00005EB0010B0FBF4F000F00F00104480B2F9
:1013E000B060BDE8F081FA195B41FEF74FFF01469E
:1013F000B0FBF4F00201B1FBF4F06FF018035843B6
:1014000001EB800005EBC000B0FBF4F000F0F80049
:1014100002EB4002B1FBF4F0584301EB800005EB16
:10142000C000B0FBF4F000F00700D7E730B587B09C
:1014300014216846FEF7A1FF15480024016841F019
:1014400010010160016801F010010591016841F08F
:1014500080010160016801F080010591016841F09F
:101460004001016000680B4D00F040000590002233
:1014700006212846FFF744FC062000900120CDE914
:101480000104694628460394FFF718FB07B030BDF6
:10149000303802400018024010B58EB01C2168465A
:1014A000FEF76BFF182107A8FEF767FF29480168C0
:1014B00041F000410160006800F000400D902548B7
:1014C0001038016841F0100101600068022100F04D
:1014D00010000D900320CDE907010024CDE9090497
:1014E0000820CDE90B4007A91B48FFF77FFD1B48EB
:1014F0000068C0F30220011D072901D2002000E08E
:10150000C01E04FA00F10801154981F800041449CD
:101510004FF400204B39C1F800014FF4E130CDE920
:1015200000040C200294CDE90340059406940D4C70
:1015300069462046FFF7C6FE206920F490402061EE
:10154000606920F02A006061E06840F40050E060CB
:101550000EB010BD40380240001002400CED00E01B
:1015600053E000E0007C0040FEE7FEE7704700002B
:1015700004490968044A01F0F0010909515CC840B6
:1015800070470000083802404E18000804490968F6
:10159000044A01F4E05102EB91210978C8407047F8
:1015A000083802405E18000804490968044A01F43A
:1015B000604102EB51310978C84070470838024059
:1015C0005E1800080748006810F00C01064807D0B4
:1015D000042904D0082903D1082000F009B80348E1
:1015E00070470000083802400024F400001BB700D8
:1015F00010B5104A04460020116811F480030E490A
:1016000003D0B3F5800F00D10C49082C11D110681C
:1016100000F03F00B1FBF0F01168C1F388114843BE
:101620001168012201F4403102EB11414900B0FB85
:10163000F1F010BD043802400024F400001BB70094
:1016400070470000014610B5A0F10060400C06D0C4
:10165000082813D0411E062921D8001D10BD114AAB
:101660004FF0006303EB80348C4203D802EB8034EC
:101670008C42F3D8401C0428F4D310BD0A4B002040
:101680004FF0016202EB80348C4203D803EB8034CC
:101690008C4202D8401C0428F4D30C3010BD083012
:1016A00010BD00000040000800401008FFF734BBE8
:1016B000304810B5016821F00F0141F005010160CB
:1016C000016801F00F010529FAD12B48016841F4A6
:1016D00040410160016841F48031016027480168A0
:1016E00041F4803101600168C1F340410029FAD022
:1016F0002249234A091D0B68224C23401A430A60E1
:101700000A6822F440320A60016841F08071016089
:101710000168C1F340610029FAD018480830016817
:1017200021F0F0010160016821F4E05141F4A05181
:101730000160016821F4604141F4004101600168E9
:1017400021F0030141F002010160016801F00C0188
:101750000829FAD10C48FFF757FD0F20FFF7FEFAD2
:1017600008B172B6FEE705488C30016821F080713F
:10177000016010BD003C0240007000400038024093
:10178000083C40000080BFFF0095BA0A024801688B
:1017900041F470010160704788ED00E010B50D4C18
:1017A00020680D490840B0F1005F11D10B48FFF7E8
:1017B00031FD0B48FFF7AAFBFFF7B4FC606809494D
:1017C000086009490C6080F30888BDE810400047B4
:1017D00010BD0000004000080000FE2F007C00400B
:1017E000001802401000002008ED00E0FFF75ABB8F
:1017F000FEE70907090E002804DB00F1E02080F86D
:101800000014704700F00F0000F1E02080F8141D74
:1018100070470000FFF788FAFFF74AFFFFF706FE60
:10182000FFF73AFEFEF756FEFFF7B8FF044C06211D
:101830002046FFF75DFA6420FFF782F8F7E7000023
:10184000001802404FF04070E1EE100A70470000AF
:101850000000000000000102030406070809000060
:1018600000000102030400008818000800000020A6
:1018700014000000E80100089C1800081400002073
:101880009452000004020008010000001000000053
:0C189000000000000024F4000000000034
:04000005080001AD41
:00000001FF
